{
  "_format": "hh-sol-artifact-1",
  "contractName": "TowerRouter",
  "sourceName": "contracts/TowerRouter.sol",
  "abi": [
    {
      "inputs": [
        {
          "internalType": "address",
          "name": "_wethToken",
          "type": "address"
        },
        {
          "internalType": "address",
          "name": "_owner",
          "type": "address"
        }
      ],
      "stateMutability": "nonpayable",
      "type": "constructor"
    },
    {
      "anonymous": false,
      "inputs": [
        {
          "indexed": true,
          "internalType": "address",
          "name": "token",
          "type": "address"
        },
        {
          "indexed": false,
          "internalType": "uint256",
          "name": "feeAmount",
          "type": "uint256"
        }
      ],
      "name": "FeeCollected",
      "type": "event"
    },
    {
      "anonymous": false,
      "inputs": [
        {
          "indexed": true,
          "internalType": "address",
          "name": "token",
          "type": "address"
        },
        {
          "indexed": true,
          "internalType": "address",
          "name": "recipient",
          "type": "address"
        },
        {
          "indexed": false,
          "internalType": "uint256",
          "name": "amount",
          "type": "uint256"
        }
      ],
      "name": "FeeWithdrawn",
      "type": "event"
    },
    {
      "anonymous": false,
      "inputs": [
        {
          "indexed": true,
          "internalType": "address",
          "name": "user",
          "type": "address"
        },
        {
          "indexed": false,
          "internalType": "uint256",
          "name": "amountIn",
          "type": "uint256"
        },
        {
          "indexed": false,
          "internalType": "uint256",
          "name": "amountOut",
          "type": "uint256"
        }
      ],
      "name": "NativeSwap",
      "type": "event"
    },
    {
      "anonymous": false,
      "inputs": [
        {
          "indexed": true,
          "internalType": "address",
          "name": "previousOwner",
          "type": "address"
        },
        {
          "indexed": true,
          "internalType": "address",
          "name": "newOwner",
          "type": "address"
        }
      ],
      "name": "OwnershipTransferred",
      "type": "event"
    },
    {
      "anonymous": false,
      "inputs": [
        {
          "indexed": false,
          "internalType": "address",
          "name": "account",
          "type": "address"
        }
      ],
      "name": "Paused",
      "type": "event"
    },
    {
      "anonymous": false,
      "inputs": [
        {
          "indexed": false,
          "internalType": "uint256",
          "name": "newFee",
          "type": "uint256"
        }
      ],
      "name": "PlatformFeeUpdated",
      "type": "event"
    },
    {
      "anonymous": false,
      "inputs": [
        {
          "indexed": true,
          "internalType": "address",
          "name": "router",
          "type": "address"
        }
      ],
      "name": "RouterRegistered",
      "type": "event"
    },
    {
      "anonymous": false,
      "inputs": [
        {
          "indexed": true,
          "internalType": "address",
          "name": "router",
          "type": "address"
        }
      ],
      "name": "RouterUnregistered",
      "type": "event"
    },
    {
      "anonymous": false,
      "inputs": [
        {
          "indexed": true,
          "internalType": "address",
          "name": "user",
          "type": "address"
        },
        {
          "indexed": true,
          "internalType": "address",
          "name": "tokenIn",
          "type": "address"
        },
        {
          "indexed": true,
          "internalType": "address",
          "name": "tokenOut",
          "type": "address"
        },
        {
          "indexed": false,
          "internalType": "uint256",
          "name": "amountIn",
          "type": "uint256"
        },
        {
          "indexed": false,
          "internalType": "uint256",
          "name": "amountOut",
          "type": "uint256"
        },
        {
          "indexed": false,
          "internalType": "uint256",
          "name": "feeAmount",
          "type": "uint256"
        },
        {
          "indexed": false,
          "internalType": "address[]",
          "name": "path",
          "type": "address[]"
        },
        {
          "indexed": false,
          "internalType": "uint256",
          "name": "timestamp",
          "type": "uint256"
        }
      ],
      "name": "Swap",
      "type": "event"
    },
    {
      "anonymous": false,
      "inputs": [
        {
          "indexed": false,
          "internalType": "address",
          "name": "account",
          "type": "address"
        }
      ],
      "name": "Unpaused",
      "type": "event"
    },
    {
      "inputs": [],
      "name": "BASIS_POINTS",
      "outputs": [
        {
          "internalType": "uint256",
          "name": "",
          "type": "uint256"
        }
      ],
      "stateMutability": "view",
      "type": "function"
    },
    {
      "inputs": [],
      "name": "MAX_HOPS",
      "outputs": [
        {
          "internalType": "uint256",
          "name": "",
          "type": "uint256"
        }
      ],
      "stateMutability": "view",
      "type": "function"
    },
    {
      "inputs": [],
      "name": "NATIVE_TOKEN",
      "outputs": [
        {
          "internalType": "address",
          "name": "",
          "type": "address"
        }
      ],
      "stateMutability": "view",
      "type": "function"
    },
    {
      "inputs": [
        {
          "internalType": "address",
          "name": "",
          "type": "address"
        }
      ],
      "name": "accumulatedFees",
      "outputs": [
        {
          "internalType": "uint256",
          "name": "",
          "type": "uint256"
        }
      ],
      "stateMutability": "view",
      "type": "function"
    },
    {
      "inputs": [
        {
          "internalType": "address",
          "name": "token",
          "type": "address"
        }
      ],
      "name": "getAccumulatedFees",
      "outputs": [
        {
          "internalType": "uint256",
          "name": "",
          "type": "uint256"
        }
      ],
      "stateMutability": "view",
      "type": "function"
    },
    {
      "inputs": [],
      "name": "getRouters",
      "outputs": [
        {
          "internalType": "address[]",
          "name": "",
          "type": "address[]"
        }
      ],
      "stateMutability": "view",
      "type": "function"
    },
    {
      "inputs": [],
      "name": "owner",
      "outputs": [
        {
          "internalType": "address",
          "name": "",
          "type": "address"
        }
      ],
      "stateMutability": "view",
      "type": "function"
    },
    {
      "inputs": [],
      "name": "pause",
      "outputs": [],
      "stateMutability": "nonpayable",
      "type": "function"
    },
    {
      "inputs": [],
      "name": "paused",
      "outputs": [
        {
          "internalType": "bool",
          "name": "",
          "type": "bool"
        }
      ],
      "stateMutability": "view",
      "type": "function"
    },
    {
      "inputs": [],
      "name": "platformFee",
      "outputs": [
        {
          "internalType": "uint256",
          "name": "",
          "type": "uint256"
        }
      ],
      "stateMutability": "view",
      "type": "function"
    },
    {
      "inputs": [
        {
          "internalType": "address",
          "name": "token",
          "type": "address"
        },
        {
          "internalType": "uint256",
          "name": "amount",
          "type": "uint256"
        }
      ],
      "name": "recoverToken",
      "outputs": [],
      "stateMutability": "nonpayable",
      "type": "function"
    },
    {
      "inputs": [
        {
          "internalType": "address",
          "name": "router",
          "type": "address"
        }
      ],
      "name": "registerRouter",
      "outputs": [],
      "stateMutability": "nonpayable",
      "type": "function"
    },
    {
      "inputs": [
        {
          "internalType": "address",
          "name": "",
          "type": "address"
        }
      ],
      "name": "registeredRouters",
      "outputs": [
        {
          "internalType": "bool",
          "name": "",
          "type": "bool"
        }
      ],
      "stateMutability": "view",
      "type": "function"
    },
    {
      "inputs": [],
      "name": "renounceOwnership",
      "outputs": [],
      "stateMutability": "nonpayable",
      "type": "function"
    },
    {
      "inputs": [
        {
          "internalType": "uint256",
          "name": "",
          "type": "uint256"
        }
      ],
      "name": "routers",
      "outputs": [
        {
          "internalType": "address",
          "name": "",
          "type": "address"
        }
      ],
      "stateMutability": "view",
      "type": "function"
    },
    {
      "inputs": [
        {
          "internalType": "uint256",
          "name": "newFee",
          "type": "uint256"
        }
      ],
      "name": "setPlatformFee",
      "outputs": [],
      "stateMutability": "nonpayable",
      "type": "function"
    },
    {
      "inputs": [
        {
          "internalType": "uint256",
          "name": "amountIn",
          "type": "uint256"
        },
        {
          "internalType": "uint256",
          "name": "minAmountOut",
          "type": "uint256"
        },
        {
          "internalType": "address[]",
          "name": "path",
          "type": "address[]"
        },
        {
          "internalType": "address",
          "name": "to",
          "type": "address"
        },
        {
          "internalType": "uint256",
          "name": "deadline",
          "type": "uint256"
        },
        {
          "internalType": "address",
          "name": "router",
          "type": "address"
        }
      ],
      "name": "swapExactTokensForTokens",
      "outputs": [
        {
          "internalType": "uint256",
          "name": "amountOut",
          "type": "uint256"
        }
      ],
      "stateMutability": "nonpayable",
      "type": "function"
    },
    {
      "inputs": [
        {
          "components": [
            {
              "internalType": "address[]",
              "name": "path",
              "type": "address[]"
            },
            {
              "internalType": "uint256",
              "name": "amountIn",
              "type": "uint256"
            },
            {
              "internalType": "uint256",
              "name": "minAmountOut",
              "type": "uint256"
            },
            {
              "internalType": "address",
              "name": "router",
              "type": "address"
            }
          ],
          "internalType": "struct TowerRouter.SplitSwapParams[]",
          "name": "splits",
          "type": "tuple[]"
        },
        {
          "internalType": "address",
          "name": "tokenOut",
          "type": "address"
        },
        {
          "internalType": "uint256",
          "name": "minAmountOut",
          "type": "uint256"
        },
        {
          "internalType": "address",
          "name": "to",
          "type": "address"
        },
        {
          "internalType": "uint256",
          "name": "deadline",
          "type": "uint256"
        }
      ],
      "name": "swapWithSplit",
      "outputs": [
        {
          "internalType": "uint256",
          "name": "totalAmountOut",
          "type": "uint256"
        }
      ],
      "stateMutability": "nonpayable",
      "type": "function"
    },
    {
      "inputs": [
        {
          "internalType": "address",
          "name": "newOwner",
          "type": "address"
        }
      ],
      "name": "transferOwnership",
      "outputs": [],
      "stateMutability": "nonpayable",
      "type": "function"
    },
    {
      "inputs": [],
      "name": "unpause",
      "outputs": [],
      "stateMutability": "nonpayable",
      "type": "function"
    },
    {
      "inputs": [
        {
          "internalType": "address",
          "name": "router",
          "type": "address"
        }
      ],
      "name": "unregisterRouter",
      "outputs": [],
      "stateMutability": "nonpayable",
      "type": "function"
    },
    {
      "inputs": [],
      "name": "wethToken",
      "outputs": [
        {
          "internalType": "address",
          "name": "",
          "type": "address"
        }
      ],
      "stateMutability": "view",
      "type": "function"
    },
    {
      "inputs": [
        {
          "internalType": "address",
          "name": "token",
          "type": "address"
        },
        {
          "internalType": "address",
          "name": "recipient",
          "type": "address"
        }
      ],
      "name": "withdrawFees",
      "outputs": [],
      "stateMutability": "nonpayable",
      "type": "function"
    },
    {
      "stateMutability": "payable",
      "type": "receive"
    }
  ],
  "bytecode": "0x608034620001ad5762001db490601f38839003908101601f19168201906001600160401b03821183831017620001b25780839160409586948552833981010312620001ad576200005d60206200005583620001c8565b9201620001c8565b9060016000556200006e33620001dd565b6001805460ff60a01b19811690915560196003556001600160a01b0391821680156200016957600280546001600160a01b03191691909117905533908216036200012657811615620000d357620000c590620001dd565b51611b8d9081620002278239f35b815162461bcd60e51b815260206004820152602660248201527f4f776e61626c653a206e6577206f776e657220697320746865207a65726f206160448201526564647265737360d01b6064820152608490fd5b6064835162461bcd60e51b815260206004820152602060248201527f4f776e61626c653a2063616c6c6572206973206e6f7420746865206f776e65726044820152fd5b845162461bcd60e51b815260206004820152601460248201527f496e76616c6964205745544820616464726573730000000000000000000000006044820152606490fd5b600080fd5b634e487b7160e01b600052604160045260246000fd5b51906001600160a01b0382168203620001ad57565b600180546001600160a01b039283166001600160a01b0319821681179092559091167f8be0079c531659141344cd1fd0a4f28419497f9722a3daafe3b4186f6b6457e0600080a356fe6080604052600480361015610050575b50361561001b57600080fd5b604051348152600060208201527f027750877b9edb8879a0cd09d5d567a634376447b06f0774029736fae52f233760403392a2005b60003560e01c806305a1450d14610e9257806312e8e2c314610df857806322b19af714610cc457806326232a2e14610ca657806331f7d96414610c8a5780633f4ba83a14610bec5780634b57b0be14610bc35780634e9c111814610b825780635012e0a414610a24578063564201f914610a025780635c975abb146109dc578063715018a61461097f5780638456cb591461091d578063877056cf146108de5780638c51222e146108c25780638da5cb5b14610899578063b29a81401461085a578063e1f1c4a71461083d578063e7c68c42146103f0578063f2555278146102f5578063f2fde38b1461022b578063f88c31ce1461018f5763fcf666640361000f573461018a57602036600319011261018a576001600160a01b03610173611187565b166000526020526020604060002054604051908152f35b600080fd5b3461018a57600036600319011261018a57604051806006549182815260208091019260066000527ff652222313e28459528d920b65115c16c04f3efc82aaedc97be59f3f377c0d3f916000905b82821061020b57610207856101f3818903826113ad565b604051918291602083526020830190611200565b0390f35b83546001600160a01b0316865294850194600193840193909101906101dc565b503461018a57602036600319011261018a57610245611187565b61024d6118d4565b6001600160a01b039081169182156102a25750600154826bffffffffffffffffffffffff60a01b821617600155167f8be0079c531659141344cd1fd0a4f28419497f9722a3daafe3b4186f6b6457e0600080a3005b60849060206040519162461bcd60e51b8352820152602660248201527f4f776e61626c653a206e6577206f776e657220697320746865207a65726f206160448201526564647265737360d01b6064820152fd5b503461018a57604036600319011261018a5761030f611187565b9061031861119d565b906103216118d4565b6103296113e5565b6001600160a01b038281169361034085151561123d565b169182600052816020526040600020549182156103a15791610393816020937eed5939179dc194223f0edd1517ecee2210b22da7f82c8e4b1795e93b9f06aa95876000528552600060408120558661183e565b604051908152a36001600055005b60849060206040519162461bcd60e51b8352820152602260248201527f4e6f20616363756d756c61746564206665657320666f72207468697320746f6b60448201526132b760f11b6064820152fd5b503461018a5760a036600319011261018a57803567ffffffffffffffff811161018a576104209036908301611140565b61042861119d565b90610431611171565b9161043a6113e5565b61044261143b565b8115801580610832575b156107f857604435156107bb5761046d6001600160a01b038516151561123d565b610478608435611482565b6107a6578335607e198536030181121561018a5761049890850180611377565b15610791576104a6906112d1565b9260009460009160005b858110610615575060443587106105d1576104d69087906001600160a01b03861661183e565b816105c2575b926000936000915b80831061059b5750505060405195602087019087821067ffffffffffffffff83111761058657506020967f369aa8cd135ff19620b8a3a0f6fbb449758c2b8544a4e6b23ef7311b617ed6a39261055c92604052600082526040519586528789870152604086015260a0606086015260a0850190611200565b4260808501526001600160a01b039283169490921692339281900390a46001600055604051908152f35b604190634e487b7160e01b6000525260246000fd5b9091946105b960019160206105b1898688611355565b013590611877565b950191906104e4565b6105cc8286611884565b6104dc565b60405162461bcd60e51b81526020818a0152601960248201527f496e73756666696369656e742073706c6974206f7574707574000000000000006044820152606490fd5b9296610622848785611355565b906001600160a01b03610637606084016112d1565b16600052600560205261065160ff6040600020541661127d565b61065b8280611377565b906106668480611377565b8092915060001981011161077c576001600160a01b0389811693909261069c926106979260001990920191906112c1565b6112d1565b16036107415760019161073a91610734906106c6602084013530336001600160a01b038f166114cf565b61072e8b6106da600354602087013561152a565b946107076106ec8760208401356112e5565b80936106fa606085016112d1565b908b8060a01b0316611585565b610713606082016112d1565b61071d8280611377565b9160843594604030950135916116c9565b90611877565b99611877565b93016104b0565b60405162461bcd60e51b81526020818c0152601460248201527324b73b30b634b21037baba383aba103a37b5b2b760611b6044820152606490fd5b60118d634e487b7160e01b6000525260246000fd5b603286634e487b7160e01b6000525260246000fd5b603285634e487b7160e01b6000525260246000fd5b60405162461bcd60e51b81526020818801526016602482015275125b9d985b1a59081b5a5b9a5b5d5b481bdd5d1c1d5d60521b6044820152606490fd5b60405162461bcd60e51b81526020818801526013602482015272125b9d985b1a59081cdc1b1a5d0818dbdd5b9d606a1b6044820152606490fd5b50600383111561044c565b3461018a57600036600319011261018a5760206040516127108152f35b3461018a57604036600319011261018a57610897610876611187565b61087e6118d4565b600154602435916001600160a01b03918216911661183e565b005b3461018a57600036600319011261018a576001546040516001600160a01b039091168152602090f35b3461018a57600036600319011261018a57602060405160058152f35b3461018a57602036600319011261018a576001600160a01b036108ff611187565b166000526005602052602060ff604060002054166040519015158152f35b3461018a57600036600319011261018a576109366118d4565b61093e61143b565b6001805460ff60a01b1916600160a01b1790556040513381527f62e78cea01bee320cd4e420270b5ea74000d11b0c9f74754ebdbfc544b05a25890602090a1005b3461018a57600036600319011261018a576109986118d4565b600180546001600160a01b031981169091556000906001600160a01b03167f8be0079c531659141344cd1fd0a4f28419497f9722a3daafe3b4186f6b6457e08280a3005b3461018a57600036600319011261018a57602060ff60015460a01c166040519015158152f35b503461018a57602036600319011261018a576001600160a01b03610173611187565b503461018a57602036600319011261018a57610a3e611187565b90610a476118d4565b60018060a01b0380921691826000526005602052610a6c60ff6040600020541661127d565b6000838152600560205260408120805460ff191690555b600680549081831015610b7857839186610a9c856111b3565b949054600395861b1c1614610ab657505050600101610a83565b919490939260001992838101908111610b635790610ae785610ada610b05946111b3565b9054908a1b1c16916111b3565b90919060018060a01b038084549260031b9316831b921b1916179055565b8354908115610b4e57500192610b1a846111b3565b81939154921b1b19169055555b7f75651c5c467d4644a640a67bb1f11c3b5e6e05c68283a21a248c9b2685e4fa09600080a2005b603190634e487b7160e01b6000525260246000fd5b601183634e487b7160e01b6000525260246000fd5b5050505050610b27565b503461018a57602036600319011261018a573560065481101561018a57610baa6020916111b3565b905460405160039290921b1c6001600160a01b03168152f35b3461018a57600036600319011261018a576002546040516001600160a01b039091168152602090f35b503461018a57600036600319011261018a57610c066118d4565b6001549060ff8260a01c1615610c4f575060ff60a01b19166001556040513381527f5db9ee0a495bf2e6ff9c91a7834c1ba4fdd244a5e8aa4e537bd38aeae4b073aa90602090a1005b60649060206040519162461bcd60e51b8352820152601460248201527314185d5cd8589b194e881b9bdd081c185d5cd95960621b6044820152fd5b3461018a57600036600319011261018a57602060405160008152f35b3461018a57600036600319011261018a576020600354604051908152f35b503461018a57602036600319011261018a57610cde611187565b610ce66118d4565b6001600160a01b038116918215610dbb5782600052600560205260ff60406000205416610d77578260005260056020526040600020600160ff198254161790556006549068010000000000000000821015610586575090610ae7826001610d5094016006556111b3565b7f94df8c3a8087dce110e5fbc5acf380c83c94bbd31b2c8ed4c08e1396a696e1a8600080a2005b60649060206040519162461bcd60e51b8352820152601960248201527f526f7574657220616c72656164792072656769737465726564000000000000006044820152fd5b60649060206040519162461bcd60e51b83528201526016602482015275496e76616c696420726f75746572206164647265737360501b6044820152fd5b503461018a57602036600319011261018a57803590610e156118d4565b601e8211610e4e577f45610d581145924dd7090a5017e5f2b1d6f42213bb2e95707ff86846bbfcb1ca60208380600355604051908152a1005b60649060206040519162461bcd60e51b8352820152601860248201527f4665652065786365656473206d6178696d756d20302e332500000000000000006044820152fd5b503461018a5760c036600319011261018a576024908135813560443567ffffffffffffffff811161018a57610eca9036908501611140565b9190610ed4611171565b9260a4356001600160a01b0360843581831680840361018a57610ef56113e5565b610efd61143b565b600285101580611135575b156110fc5786156110c257610f20838916151561123d565b6000526005602052610f3960ff6040600020541661127d565b610f4281611482565b83156110ae57610f51856112d1565b92600019850185811161109a57998794939291610f738b9c888a9d9c9d6112c1565b610f7c906112d1565b9281888a8789169d8e308c3391610f9392846114cf565b600354610fa0908d61152a565b9b8c610fab916112e5565b8095610fb692611585565b3093610fc1966116c9565b9a8b10611057575060209a50916110038a7f369aa8cd135ff19620b8a3a0f6fbb449758c2b8544a4e6b23ef7311b617ed6a397959361102d9795169a8b61183e565b8180611047575b5050604051958652888a870152604086015260a0606086015260a0850191611308565b914260808201528033930390a46001600055604051908152f35b61105091611884565b388161100a565b606490601a8d60206040519362461bcd60e51b85528401528201527f496e73756666696369656e74206f757470757420616d6f756e740000000000006044820152fd5b8b60118c634e487b7160e01b600052526000fd5b8960328a634e487b7160e01b600052526000fd5b60405162461bcd60e51b81526020818c01526014818d015273125b9d985b1a59081a5b9c1d5d08185b5bdd5b9d60621b6044820152606490fd5b60405162461bcd60e51b81526020818c01526013818d015272092dcecc2d8d2c840e0c2e8d040d8cadccee8d606b1b6044820152606490fd5b506005851115610f08565b9181601f8401121561018a5782359167ffffffffffffffff831161018a576020808501948460051b01011161018a57565b606435906001600160a01b038216820361018a57565b600435906001600160a01b038216820361018a57565b602435906001600160a01b038216820361018a57565b6006548110156111ea5760066000527ff652222313e28459528d920b65115c16c04f3efc82aaedc97be59f3f377c0d3f0190600090565b634e487b7160e01b600052603260045260246000fd5b90815180825260208080930193019160005b828110611220575050505090565b83516001600160a01b031685529381019392810192600101611212565b1561124457565b60405162461bcd60e51b8152602060048201526011602482015270125b9d985b1a59081c9958da5c1a595b9d607a1b6044820152606490fd5b1561128457565b60405162461bcd60e51b8152602060048201526015602482015274149bdd5d195c881b9bdd081c9959da5cdd195c9959605a1b6044820152606490fd5b91908110156111ea5760051b0190565b356001600160a01b038116810361018a5790565b919082039182116112f257565b634e487b7160e01b600052601160045260246000fd5b9190808252602080920192916000805b83821061132757505050505090565b9091929394853560018060a01b038116809103611351578152830194830193929160010190611318565b8280fd5b91908110156111ea5760051b81013590607e198136030182121561018a570190565b903590601e198136030182121561018a570180359067ffffffffffffffff821161018a57602001918160051b3603831361018a57565b90601f8019910116810190811067ffffffffffffffff8211176113cf57604052565b634e487b7160e01b600052604160045260246000fd5b6002600054146113f6576002600055565b60405162461bcd60e51b815260206004820152601f60248201527f5265656e7472616e637947756172643a207265656e7472616e742063616c6c006044820152606490fd5b60ff60015460a01c1661144a57565b60405162461bcd60e51b815260206004820152601060248201526f14185d5cd8589b194e881c185d5cd95960821b6044820152606490fd5b421161148a57565b60405162461bcd60e51b815260206004820152601c60248201527f5472616e73616374696f6e20646561646c696e652065787069726564000000006044820152606490fd5b6040516323b872dd60e01b60208201526001600160a01b03928316602482015292909116604483015260648083019390935291815260a081019181831067ffffffffffffffff8411176113cf576115289260405261192c565b565b601e821161154a578181029181830414901517156112f257612710900490565b60405162461bcd60e51b81526020600482015260136024820152724665652065786365656473206d6178696d756d60681b6044820152606490fd5b91909181158015611643575b156115df5760405163095ea7b360e01b60208201526001600160a01b039093166024840152604483019190915261152891906115da82606481015b03601f1981018452836113ad565b61192c565b60405162461bcd60e51b815260206004820152603660248201527f5361666545524332303a20617070726f76652066726f6d206e6f6e2d7a65726f60448201527520746f206e6f6e2d7a65726f20616c6c6f77616e636560501b6064820152608490fd5b50604051636eb1769f60e11b81523060048201526001600160a01b0384811660248301526020908290604490829086165afa9081156116bd5760009161168b575b5015611591565b90506020813d6020116116b5575b816116a6602093836113ad565b8101031261018a575138611684565b3d9150611699565b6040513d6000823e3d90fd5b6040516338ed173960e01b81526004810192909252602482019290925260a060448201526001600160a01b0396959094859485948593918a916117109160a4870191611308565b921660648401526084830152600097889586920393165af1908115611833578391611782575b508051600019810190811161176e57815181101561175a5760051b01602001519150565b634e487b7160e01b84526032600452602484fd5b634e487b7160e01b84526011600452602484fd5b90503d8084833e61179381836113ad565b8101602090818382031261182f57825167ffffffffffffffff93848211611813570181601f8201121561182b578051938411611817578360051b90604051946117de858401876113ad565b85528380860192820101928311611813578301905b828210611804575050505038611736565b815181529083019083016117f3565b8680fd5b634e487b7160e01b86526041600452602486fd5b8580fd5b8480fd5b6040513d85823e3d90fd5b60405163a9059cbb60e01b60208201526001600160a01b0390921660248301526044820192909252611528916115da82606481016115cc565b919082018092116112f257565b60207f06c5efeff5c320943d265dc4e5f1af95ad523555ce0c1957e367dda5514572df9160018060a01b031692836000526004825260406000206118c9828254611877565b9055604051908152a2565b6001546001600160a01b031633036118e857565b606460405162461bcd60e51b815260206004820152602060248201527f4f776e61626c653a2063616c6c6572206973206e6f7420746865206f776e65726044820152fd5b60018060a01b0316906040516040810167ffffffffffffffff90828110828211176113cf576040526020938483527f5361666545524332303a206c6f772d6c6576656c2063616c6c206661696c6564858401526000808587829751910182855af1903d15611a78573d928311611a6457906119c7939291604051926119ba88601f19601f84011601856113ad565b83523d868885013e611a83565b805191821591848315611a39575b5050509050156119e25750565b6084906040519062461bcd60e51b82526004820152602a60248201527f5361666545524332303a204552433230206f7065726174696f6e20646964206e6044820152691bdd081cdd58d8d9595960b21b6064820152fd5b919381809450010312611a6057820151908115158203611a5d5750803880846119d5565b80fd5b5080fd5b634e487b7160e01b85526041600452602485fd5b906119c79392506060915b91929015611ae55750815115611a97575090565b3b15611aa05790565b60405162461bcd60e51b815260206004820152601d60248201527f416464726573733a2063616c6c20746f206e6f6e2d636f6e74726163740000006044820152606490fd5b825190915015611af85750805190602001fd5b6040519062461bcd60e51b82528160208060048301528251908160248401526000935b828510611b3e575050604492506000838284010152601f80199101168101030190fd5b8481018201518686016044015293810193859350611b1b56fea26469706673582212202ff4f92d996f7bd3b0721f46ed0ffcc6c7c95c058433bb7debbae6c77d70a62764736f6c63430008180033",
  "linkReferences": {},
  "deployedLinkReferences": {}
}