{"contracts/TowerRouter.sol":{"TowerRouter":{"abi":[{"inputs":[{"internalType":"address","name":"_wethToken","type":"address"},{"internalType":"address","name":"_owner","type":"address"}],"stateMutability":"nonpayable","type":"constructor"},{"anonymous":false,"inputs":[{"indexed":true,"internalType":"address","name":"token","type":"address"},{"indexed":false,"internalType":"uint256","name":"feeAmount","type":"uint256"}],"name":"FeeCollected","type":"event"},{"anonymous":false,"inputs":[{"indexed":true,"internalType":"address","name":"token","type":"address"},{"indexed":true,"internalType":"address","name":"recipient","type":"address"},{"indexed":false,"internalType":"uint256","name":"amount","type":"uint256"}],"name":"FeeWithdrawn","type":"event"},{"anonymous":false,"inputs":[{"indexed":true,"internalType":"address","name":"user","type":"address"},{"indexed":false,"internalType":"uint256","name":"amountIn","type":"uint256"},{"indexed":false,"internalType":"uint256","name":"amountOut","type":"uint256"}],"name":"NativeSwap","type":"event"},{"anonymous":false,"inputs":[{"indexed":true,"internalType":"address","name":"previousOwner","type":"address"},{"indexed":true,"internalType":"address","name":"newOwner","type":"address"}],"name":"OwnershipTransferred","type":"event"},{"anonymous":false,"inputs":[{"indexed":false,"internalType":"address","name":"account","type":"address"}],"name":"Paused","type":"event"},{"anonymous":false,"inputs":[{"indexed":false,"internalType":"uint256","name":"newFee","type":"uint256"}],"name":"PlatformFeeUpdated","type":"event"},{"anonymous":false,"inputs":[{"indexed":true,"internalType":"address","name":"router","type":"address"}],"name":"RouterRegistered","type":"event"},{"anonymous":false,"inputs":[{"indexed":true,"internalType":"address","name":"router","type":"address"}],"name":"RouterUnregistered","type":"event"},{"anonymous":false,"inputs":[{"indexed":true,"internalType":"address","name":"user","type":"address"},{"indexed":true,"internalType":"address","name":"tokenIn","type":"address"},{"indexed":true,"internalType":"address","name":"tokenOut","type":"address"},{"indexed":false,"internalType":"uint256","name":"amountIn","type":"uint256"},{"indexed":false,"internalType":"uint256","name":"amountOut","type":"uint256"},{"indexed":false,"internalType":"uint256","name":"feeAmount","type":"uint256"},{"indexed":false,"internalType":"address[]","name":"path","type":"address[]"},{"indexed":false,"internalType":"uint256","name":"timestamp","type":"uint256"}],"name":"Swap","type":"event"},{"anonymous":false,"inputs":[{"indexed":false,"internalType":"address","name":"account","type":"address"}],"name":"Unpaused","type":"event"},{"inputs":[],"name":"BASIS_POINTS","outputs":[{"internalType":"uint256","name":"","type":"uint256"}],"stateMutability":"view","type":"function"},{"inputs":[],"name":"MAX_HOPS","outputs":[{"internalType":"uint256","name":"","type":"uint256"}],"stateMutability":"view","type":"function"},{"inputs":[],"name":"NATIVE_TOKEN","outputs":[{"internalType":"address","name":"","type":"address"}],"stateMutability":"view","type":"function"},{"inputs":[{"internalType":"address","name":"","type":"address"}],"name":"accumulatedFees","outputs":[{"internalType":"uint256","name":"","type":"uint256"}],"stateMutability":"view","type":"function"},{"inputs":[{"internalType":"address","name":"token","type":"address"}],"name":"getAccumulatedFees","outputs":[{"internalType":"uint256","name":"","type":"uint256"}],"stateMutability":"view","type":"function"},{"inputs":[],"name":"getRouters","outputs":[{"internalType":"address[]","name":"","type":"address[]"}],"stateMutability":"view","type":"function"},{"inputs":[],"name":"owner","outputs":[{"internalType":"address","name":"","type":"address"}],"stateMutability":"view","type":"function"},{"inputs":[],"name":"pause","outputs":[],"stateMutability":"nonpayable","type":"function"},{"inputs":[],"name":"paused","outputs":[{"internalType":"bool","name":"","type":"bool"}],"stateMutability":"view","type":"function"},{"inputs":[],"name":"platformFee","outputs":[{"internalType":"uint256","name":"","type":"uint256"}],"stateMutability":"view","type":"function"},{"inputs":[{"internalType":"address","name":"token","type":"address"},{"internalType":"uint256","name":"amount","type":"uint256"}],"name":"recoverToken","outputs":[],"stateMutability":"nonpayable","type":"function"},{"inputs":[{"internalType":"address","name":"router","type":"address"}],"name":"registerRouter","outputs":[],"stateMutability":"nonpayable","type":"function"},{"inputs":[{"internalType":"address","name":"","type":"address"}],"name":"registeredRouters","outputs":[{"internalType":"bool","name":"","type":"bool"}],"stateMutability":"view","type":"function"},{"inputs":[],"name":"renounceOwnership","outputs":[],"stateMutability":"nonpayable","type":"function"},{"inputs":[{"internalType":"uint256","name":"","type":"uint256"}],"name":"routers","outputs":[{"internalType":"address","name":"","type":"address"}],"stateMutability":"view","type":"function"},{"inputs":[{"internalType":"uint256","name":"newFee","type":"uint256"}],"name":"setPlatformFee","outputs":[],"stateMutability":"nonpayable","type":"function"},{"inputs":[{"internalType":"uint256","name":"amountIn","type":"uint256"},{"internalType":"uint256","name":"minAmountOut","type":"uint256"},{"internalType":"address[]","name":"path","type":"address[]"},{"internalType":"address","name":"to","type":"address"},{"internalType":"uint256","name":"deadline","type":"uint256"},{"internalType":"address","name":"router","type":"address"}],"name":"swapExactTokensForTokens","outputs":[{"internalType":"uint256","name":"amountOut","type":"uint256"}],"stateMutability":"nonpayable","type":"function"},{"inputs":[{"components":[{"internalType":"address[]","name":"path","type":"address[]"},{"internalType":"uint256","name":"amountIn","type":"uint256"},{"internalType":"uint256","name":"minAmountOut","type":"uint256"},{"internalType":"address","name":"router","type":"address"}],"internalType":"struct TowerRouter.SplitSwapParams[]","name":"splits","type":"tuple[]"},{"internalType":"address","name":"tokenOut","type":"address"},{"internalType":"uint256","name":"minAmountOut","type":"uint256"},{"internalType":"address","name":"to","type":"address"},{"internalType":"uint256","name":"deadline","type":"uint256"}],"name":"swapWithSplit","outputs":[{"internalType":"uint256","name":"totalAmountOut","type":"uint256"}],"stateMutability":"nonpayable","type":"function"},{"inputs":[{"internalType":"address","name":"newOwner","type":"address"}],"name":"transferOwnership","outputs":[],"stateMutability":"nonpayable","type":"function"},{"inputs":[],"name":"unpause","outputs":[],"stateMutability":"nonpayable","type":"function"},{"inputs":[{"internalType":"address","name":"router","type":"address"}],"name":"unregisterRouter","outputs":[],"stateMutability":"nonpayable","type":"function"},{"inputs":[],"name":"wethToken","outputs":[{"internalType":"address","name":"","type":"address"}],"stateMutability":"view","type":"function"},{"inputs":[{"internalType":"address","name":"token","type":"address"},{"internalType":"address","name":"recipient","type":"address"}],"name":"withdrawFees","outputs":[],"stateMutability":"nonpayable","type":"function"},{"stateMutability":"payable","type":"receive"}],"evm":{"bytecode":{"linkReferences":{},"object":"608034620001ad5762001db490601f38839003908101601f19168201906001600160401b03821183831017620001b25780839160409586948552833981010312620001ad576200005d60206200005583620001c8565b9201620001c8565b9060016000556200006e33620001dd565b6001805460ff60a01b19811690915560196003556001600160a01b0391821680156200016957600280546001600160a01b03191691909117905533908216036200012657811615620000d357620000c590620001dd565b51611b8d9081620002278239f35b815162461bcd60e51b815260206004820152602660248201527f4f776e61626c653a206e6577206f776e657220697320746865207a65726f206160448201526564647265737360d01b6064820152608490fd5b6064835162461bcd60e51b815260206004820152602060248201527f4f776e61626c653a2063616c6c6572206973206e6f7420746865206f776e65726044820152fd5b845162461bcd60e51b815260206004820152601460248201527f496e76616c6964205745544820616464726573730000000000000000000000006044820152606490fd5b600080fd5b634e487b7160e01b600052604160045260246000fd5b51906001600160a01b0382168203620001ad57565b600180546001600160a01b039283166001600160a01b0319821681179092559091167f8be0079c531659141344cd1fd0a4f28419497f9722a3daafe3b4186f6b6457e0600080a356fe6080604052600480361015610050575b50361561001b57600080fd5b604051348152600060208201527f027750877b9edb8879a0cd09d5d567a634376447b06f0774029736fae52f233760403392a2005b60003560e01c806305a1450d14610e9257806312e8e2c314610df857806322b19af714610cc457806326232a2e14610ca657806331f7d96414610c8a5780633f4ba83a14610bec5780634b57b0be14610bc35780634e9c111814610b825780635012e0a414610a24578063564201f914610a025780635c975abb146109dc578063715018a61461097f5780638456cb591461091d578063877056cf146108de5780638c51222e146108c25780638da5cb5b14610899578063b29a81401461085a578063e1f1c4a71461083d578063e7c68c42146103f0578063f2555278146102f5578063f2fde38b1461022b578063f88c31ce1461018f5763fcf666640361000f573461018a57602036600319011261018a576001600160a01b03610173611187565b166000526020526020604060002054604051908152f35b600080fd5b3461018a57600036600319011261018a57604051806006549182815260208091019260066000527ff652222313e28459528d920b65115c16c04f3efc82aaedc97be59f3f377c0d3f916000905b82821061020b57610207856101f3818903826113ad565b604051918291602083526020830190611200565b0390f35b83546001600160a01b0316865294850194600193840193909101906101dc565b503461018a57602036600319011261018a57610245611187565b61024d6118d4565b6001600160a01b039081169182156102a25750600154826bffffffffffffffffffffffff60a01b821617600155167f8be0079c531659141344cd1fd0a4f28419497f9722a3daafe3b4186f6b6457e0600080a3005b60849060206040519162461bcd60e51b8352820152602660248201527f4f776e61626c653a206e6577206f776e657220697320746865207a65726f206160448201526564647265737360d01b6064820152fd5b503461018a57604036600319011261018a5761030f611187565b9061031861119d565b906103216118d4565b6103296113e5565b6001600160a01b038281169361034085151561123d565b169182600052816020526040600020549182156103a15791610393816020937eed5939179dc194223f0edd1517ecee2210b22da7f82c8e4b1795e93b9f06aa95876000528552600060408120558661183e565b604051908152a36001600055005b60849060206040519162461bcd60e51b8352820152602260248201527f4e6f20616363756d756c61746564206665657320666f72207468697320746f6b60448201526132b760f11b6064820152fd5b503461018a5760a036600319011261018a57803567ffffffffffffffff811161018a576104209036908301611140565b61042861119d565b90610431611171565b9161043a6113e5565b61044261143b565b8115801580610832575b156107f857604435156107bb5761046d6001600160a01b038516151561123d565b610478608435611482565b6107a6578335607e198536030181121561018a5761049890850180611377565b15610791576104a6906112d1565b9260009460009160005b858110610615575060443587106105d1576104d69087906001600160a01b03861661183e565b816105c2575b926000936000915b80831061059b5750505060405195602087019087821067ffffffffffffffff83111761058657506020967f369aa8cd135ff19620b8a3a0f6fbb449758c2b8544a4e6b23ef7311b617ed6a39261055c92604052600082526040519586528789870152604086015260a0606086015260a0850190611200565b4260808501526001600160a01b039283169490921692339281900390a46001600055604051908152f35b604190634e487b7160e01b6000525260246000fd5b9091946105b960019160206105b1898688611355565b013590611877565b950191906104e4565b6105cc8286611884565b6104dc565b60405162461bcd60e51b81526020818a0152601960248201527f496e73756666696369656e742073706c6974206f7574707574000000000000006044820152606490fd5b9296610622848785611355565b906001600160a01b03610637606084016112d1565b16600052600560205261065160ff6040600020541661127d565b61065b8280611377565b906106668480611377565b8092915060001981011161077c576001600160a01b0389811693909261069c926106979260001990920191906112c1565b6112d1565b16036107415760019161073a91610734906106c6602084013530336001600160a01b038f166114cf565b61072e8b6106da600354602087013561152a565b946107076106ec8760208401356112e5565b80936106fa606085016112d1565b908b8060a01b0316611585565b610713606082016112d1565b61071d8280611377565b9160843594604030950135916116c9565b90611877565b99611877565b93016104b0565b60405162461bcd60e51b81526020818c0152601460248201527324b73b30b634b21037baba383aba103a37b5b2b760611b6044820152606490fd5b60118d634e487b7160e01b6000525260246000fd5b603286634e487b7160e01b6000525260246000fd5b603285634e487b7160e01b6000525260246000fd5b60405162461bcd60e51b81526020818801526016602482015275125b9d985b1a59081b5a5b9a5b5d5b481bdd5d1c1d5d60521b6044820152606490fd5b60405162461bcd60e51b81526020818801526013602482015272125b9d985b1a59081cdc1b1a5d0818dbdd5b9d606a1b6044820152606490fd5b50600383111561044c565b3461018a57600036600319011261018a5760206040516127108152f35b3461018a57604036600319011261018a57610897610876611187565b61087e6118d4565b600154602435916001600160a01b03918216911661183e565b005b3461018a57600036600319011261018a576001546040516001600160a01b039091168152602090f35b3461018a57600036600319011261018a57602060405160058152f35b3461018a57602036600319011261018a576001600160a01b036108ff611187565b166000526005602052602060ff604060002054166040519015158152f35b3461018a57600036600319011261018a576109366118d4565b61093e61143b565b6001805460ff60a01b1916600160a01b1790556040513381527f62e78cea01bee320cd4e420270b5ea74000d11b0c9f74754ebdbfc544b05a25890602090a1005b3461018a57600036600319011261018a576109986118d4565b600180546001600160a01b031981169091556000906001600160a01b03167f8be0079c531659141344cd1fd0a4f28419497f9722a3daafe3b4186f6b6457e08280a3005b3461018a57600036600319011261018a57602060ff60015460a01c166040519015158152f35b503461018a57602036600319011261018a576001600160a01b03610173611187565b503461018a57602036600319011261018a57610a3e611187565b90610a476118d4565b60018060a01b0380921691826000526005602052610a6c60ff6040600020541661127d565b6000838152600560205260408120805460ff191690555b600680549081831015610b7857839186610a9c856111b3565b949054600395861b1c1614610ab657505050600101610a83565b919490939260001992838101908111610b635790610ae785610ada610b05946111b3565b9054908a1b1c16916111b3565b90919060018060a01b038084549260031b9316831b921b1916179055565b8354908115610b4e57500192610b1a846111b3565b81939154921b1b19169055555b7f75651c5c467d4644a640a67bb1f11c3b5e6e05c68283a21a248c9b2685e4fa09600080a2005b603190634e487b7160e01b6000525260246000fd5b601183634e487b7160e01b6000525260246000fd5b5050505050610b27565b503461018a57602036600319011261018a573560065481101561018a57610baa6020916111b3565b905460405160039290921b1c6001600160a01b03168152f35b3461018a57600036600319011261018a576002546040516001600160a01b039091168152602090f35b503461018a57600036600319011261018a57610c066118d4565b6001549060ff8260a01c1615610c4f575060ff60a01b19166001556040513381527f5db9ee0a495bf2e6ff9c91a7834c1ba4fdd244a5e8aa4e537bd38aeae4b073aa90602090a1005b60649060206040519162461bcd60e51b8352820152601460248201527314185d5cd8589b194e881b9bdd081c185d5cd95960621b6044820152fd5b3461018a57600036600319011261018a57602060405160008152f35b3461018a57600036600319011261018a576020600354604051908152f35b503461018a57602036600319011261018a57610cde611187565b610ce66118d4565b6001600160a01b038116918215610dbb5782600052600560205260ff60406000205416610d77578260005260056020526040600020600160ff198254161790556006549068010000000000000000821015610586575090610ae7826001610d5094016006556111b3565b7f94df8c3a8087dce110e5fbc5acf380c83c94bbd31b2c8ed4c08e1396a696e1a8600080a2005b60649060206040519162461bcd60e51b8352820152601960248201527f526f7574657220616c72656164792072656769737465726564000000000000006044820152fd5b60649060206040519162461bcd60e51b83528201526016602482015275496e76616c696420726f75746572206164647265737360501b6044820152fd5b503461018a57602036600319011261018a57803590610e156118d4565b601e8211610e4e577f45610d581145924dd7090a5017e5f2b1d6f42213bb2e95707ff86846bbfcb1ca60208380600355604051908152a1005b60649060206040519162461bcd60e51b8352820152601860248201527f4665652065786365656473206d6178696d756d20302e332500000000000000006044820152fd5b503461018a5760c036600319011261018a576024908135813560443567ffffffffffffffff811161018a57610eca9036908501611140565b9190610ed4611171565b9260a4356001600160a01b0360843581831680840361018a57610ef56113e5565b610efd61143b565b600285101580611135575b156110fc5786156110c257610f20838916151561123d565b6000526005602052610f3960ff6040600020541661127d565b610f4281611482565b83156110ae57610f51856112d1565b92600019850185811161109a57998794939291610f738b9c888a9d9c9d6112c1565b610f7c906112d1565b9281888a8789169d8e308c3391610f9392846114cf565b600354610fa0908d61152a565b9b8c610fab916112e5565b8095610fb692611585565b3093610fc1966116c9565b9a8b10611057575060209a50916110038a7f369aa8cd135ff19620b8a3a0f6fbb449758c2b8544a4e6b23ef7311b617ed6a397959361102d9795169a8b61183e565b8180611047575b5050604051958652888a870152604086015260a0606086015260a0850191611308565b914260808201528033930390a46001600055604051908152f35b61105091611884565b388161100a565b606490601a8d60206040519362461bcd60e51b85528401528201527f496e73756666696369656e74206f757470757420616d6f756e740000000000006044820152fd5b8b60118c634e487b7160e01b600052526000fd5b8960328a634e487b7160e01b600052526000fd5b60405162461bcd60e51b81526020818c01526014818d015273125b9d985b1a59081a5b9c1d5d08185b5bdd5b9d60621b6044820152606490fd5b60405162461bcd60e51b81526020818c01526013818d015272092dcecc2d8d2c840e0c2e8d040d8cadccee8d606b1b6044820152606490fd5b506005851115610f08565b9181601f8401121561018a5782359167ffffffffffffffff831161018a576020808501948460051b01011161018a57565b606435906001600160a01b038216820361018a57565b600435906001600160a01b038216820361018a57565b602435906001600160a01b038216820361018a57565b6006548110156111ea5760066000527ff652222313e28459528d920b65115c16c04f3efc82aaedc97be59f3f377c0d3f0190600090565b634e487b7160e01b600052603260045260246000fd5b90815180825260208080930193019160005b828110611220575050505090565b83516001600160a01b031685529381019392810192600101611212565b1561124457565b60405162461bcd60e51b8152602060048201526011602482015270125b9d985b1a59081c9958da5c1a595b9d607a1b6044820152606490fd5b1561128457565b60405162461bcd60e51b8152602060048201526015602482015274149bdd5d195c881b9bdd081c9959da5cdd195c9959605a1b6044820152606490fd5b91908110156111ea5760051b0190565b356001600160a01b038116810361018a5790565b919082039182116112f257565b634e487b7160e01b600052601160045260246000fd5b9190808252602080920192916000805b83821061132757505050505090565b9091929394853560018060a01b038116809103611351578152830194830193929160010190611318565b8280fd5b91908110156111ea5760051b81013590607e198136030182121561018a570190565b903590601e198136030182121561018a570180359067ffffffffffffffff821161018a57602001918160051b3603831361018a57565b90601f8019910116810190811067ffffffffffffffff8211176113cf57604052565b634e487b7160e01b600052604160045260246000fd5b6002600054146113f6576002600055565b60405162461bcd60e51b815260206004820152601f60248201527f5265656e7472616e637947756172643a207265656e7472616e742063616c6c006044820152606490fd5b60ff60015460a01c1661144a57565b60405162461bcd60e51b815260206004820152601060248201526f14185d5cd8589b194e881c185d5cd95960821b6044820152606490fd5b421161148a57565b60405162461bcd60e51b815260206004820152601c60248201527f5472616e73616374696f6e20646561646c696e652065787069726564000000006044820152606490fd5b6040516323b872dd60e01b60208201526001600160a01b03928316602482015292909116604483015260648083019390935291815260a081019181831067ffffffffffffffff8411176113cf576115289260405261192c565b565b601e821161154a578181029181830414901517156112f257612710900490565b60405162461bcd60e51b81526020600482015260136024820152724665652065786365656473206d6178696d756d60681b6044820152606490fd5b91909181158015611643575b156115df5760405163095ea7b360e01b60208201526001600160a01b039093166024840152604483019190915261152891906115da82606481015b03601f1981018452836113ad565b61192c565b60405162461bcd60e51b815260206004820152603660248201527f5361666545524332303a20617070726f76652066726f6d206e6f6e2d7a65726f60448201527520746f206e6f6e2d7a65726f20616c6c6f77616e636560501b6064820152608490fd5b50604051636eb1769f60e11b81523060048201526001600160a01b0384811660248301526020908290604490829086165afa9081156116bd5760009161168b575b5015611591565b90506020813d6020116116b5575b816116a6602093836113ad565b8101031261018a575138611684565b3d9150611699565b6040513d6000823e3d90fd5b6040516338ed173960e01b81526004810192909252602482019290925260a060448201526001600160a01b0396959094859485948593918a916117109160a4870191611308565b921660648401526084830152600097889586920393165af1908115611833578391611782575b508051600019810190811161176e57815181101561175a5760051b01602001519150565b634e487b7160e01b84526032600452602484fd5b634e487b7160e01b84526011600452602484fd5b90503d8084833e61179381836113ad565b8101602090818382031261182f57825167ffffffffffffffff93848211611813570181601f8201121561182b578051938411611817578360051b90604051946117de858401876113ad565b85528380860192820101928311611813578301905b828210611804575050505038611736565b815181529083019083016117f3565b8680fd5b634e487b7160e01b86526041600452602486fd5b8580fd5b8480fd5b6040513d85823e3d90fd5b60405163a9059cbb60e01b60208201526001600160a01b0390921660248301526044820192909252611528916115da82606481016115cc565b919082018092116112f257565b60207f06c5efeff5c320943d265dc4e5f1af95ad523555ce0c1957e367dda5514572df9160018060a01b031692836000526004825260406000206118c9828254611877565b9055604051908152a2565b6001546001600160a01b031633036118e857565b606460405162461bcd60e51b815260206004820152602060248201527f4f776e61626c653a2063616c6c6572206973206e6f7420746865206f776e65726044820152fd5b60018060a01b0316906040516040810167ffffffffffffffff90828110828211176113cf576040526020938483527f5361666545524332303a206c6f772d6c6576656c2063616c6c206661696c6564858401526000808587829751910182855af1903d15611a78573d928311611a6457906119c7939291604051926119ba88601f19601f84011601856113ad565b83523d868885013e611a83565b805191821591848315611a39575b5050509050156119e25750565b6084906040519062461bcd60e51b82526004820152602a60248201527f5361666545524332303a204552433230206f7065726174696f6e20646964206e6044820152691bdd081cdd58d8d9595960b21b6064820152fd5b919381809450010312611a6057820151908115158203611a5d5750803880846119d5565b80fd5b5080fd5b634e487b7160e01b85526041600452602485fd5b906119c79392506060915b91929015611ae55750815115611a97575090565b3b15611aa05790565b60405162461bcd60e51b815260206004820152601d60248201527f416464726573733a2063616c6c20746f206e6f6e2d636f6e74726163740000006044820152606490fd5b825190915015611af85750805190602001fd5b6040519062461bcd60e51b82528160208060048301528251908160248401526000935b828510611b3e575050604492506000838284010152601f80199101168101030190fd5b8481018201518686016044015293810193859350611b1b56fea26469706673582212202ff4f92d996f7bd3b0721f46ed0ffcc6c7c95c058433bb7debbae6c77d70a62764736f6c63430008180033","opcodes":"PUSH1 0x80 CALLVALUE PUSH3 0x1AD JUMPI PUSH3 0x1DB4 SWAP1 PUSH1 0x1F CODESIZE DUP4 SWAP1 SUB SWAP1 DUP2 ADD PUSH1 0x1F NOT AND DUP3 ADD SWAP1 PUSH1 0x1 PUSH1 0x1 PUSH1 0x40 SHL SUB DUP3 GT DUP4 DUP4 LT OR PUSH3 0x1B2 JUMPI DUP1 DUP4 SWAP2 PUSH1 0x40 SWAP6 DUP7 SWAP5 DUP6 MSTORE DUP4 CODECOPY DUP2 ADD SUB SLT PUSH3 0x1AD JUMPI PUSH3 0x5D PUSH1 0x20 PUSH3 0x55 DUP4 PUSH3 0x1C8 JUMP JUMPDEST SWAP3 ADD PUSH3 0x1C8 JUMP JUMPDEST SWAP1 PUSH1 0x1 PUSH1 0x0 SSTORE PUSH3 0x6E CALLER PUSH3 0x1DD JUMP JUMPDEST PUSH1 0x1 DUP1 SLOAD PUSH1 0xFF PUSH1 0xA0 SHL NOT DUP2 AND SWAP1 SWAP2 SSTORE PUSH1 0x19 PUSH1 0x3 SSTORE PUSH1 0x1 PUSH1 0x1 PUSH1 0xA0 SHL SUB SWAP2 DUP3 AND DUP1 ISZERO PUSH3 0x169 JUMPI PUSH1 0x2 DUP1 SLOAD PUSH1 0x1 PUSH1 0x1 PUSH1 0xA0 SHL SUB NOT AND SWAP2 SWAP1 SWAP2 OR SWAP1 SSTORE CALLER SWAP1 DUP3 AND SUB PUSH3 0x126 JUMPI DUP2 AND ISZERO PUSH3 0xD3 JUMPI PUSH3 0xC5 SWAP1 PUSH3 0x1DD JUMP JUMPDEST MLOAD PUSH2 0x1B8D SWAP1 DUP2 PUSH3 0x227 DUP3 CODECOPY RETURN JUMPDEST DUP2 MLOAD PUSH3 0x461BCD PUSH1 0xE5 SHL DUP2 MSTORE PUSH1 0x20 PUSH1 0x4 DUP3 ADD MSTORE PUSH1 0x26 PUSH1 0x24 DUP3 ADD MSTORE PUSH32 0x4F776E61626C653A206E6577206F776E657220697320746865207A65726F2061 PUSH1 0x44 DUP3 ADD MSTORE PUSH6 0x646472657373 PUSH1 0xD0 SHL PUSH1 0x64 DUP3 ADD MSTORE PUSH1 0x84 SWAP1 REVERT JUMPDEST PUSH1 0x64 DUP4 MLOAD PUSH3 0x461BCD PUSH1 0xE5 SHL DUP2 MSTORE PUSH1 0x20 PUSH1 0x4 DUP3 ADD MSTORE PUSH1 0x20 PUSH1 0x24 DUP3 ADD MSTORE PUSH32 0x4F776E61626C653A2063616C6C6572206973206E6F7420746865206F776E6572 PUSH1 0x44 DUP3 ADD MSTORE REVERT JUMPDEST DUP5 MLOAD PUSH3 0x461BCD PUSH1 0xE5 SHL DUP2 MSTORE PUSH1 0x20 PUSH1 0x4 DUP3 ADD MSTORE PUSH1 0x14 PUSH1 0x24 DUP3 ADD MSTORE PUSH32 0x496E76616C696420574554482061646472657373000000000000000000000000 PUSH1 0x44 DUP3 ADD MSTORE PUSH1 0x64 SWAP1 REVERT JUMPDEST PUSH1 0x0 DUP1 REVERT JUMPDEST PUSH4 0x4E487B71 PUSH1 0xE0 SHL PUSH1 0x0 MSTORE PUSH1 0x41 PUSH1 0x4 MSTORE PUSH1 0x24 PUSH1 0x0 REVERT JUMPDEST MLOAD SWAP1 PUSH1 0x1 PUSH1 0x1 PUSH1 0xA0 SHL SUB DUP3 AND DUP3 SUB PUSH3 0x1AD JUMPI JUMP JUMPDEST PUSH1 0x1 DUP1 SLOAD PUSH1 0x1 PUSH1 0x1 PUSH1 0xA0 SHL SUB SWAP3 DUP4 AND PUSH1 0x1 PUSH1 0x1 PUSH1 0xA0 SHL SUB NOT DUP3 AND DUP2 OR SWAP1 SWAP3 SSTORE SWAP1 SWAP2 AND PUSH32 0x8BE0079C531659141344CD1FD0A4F28419497F9722A3DAAFE3B4186F6B6457E0 PUSH1 0x0 DUP1 LOG3 JUMP INVALID PUSH1 0x80 PUSH1 0x40 MSTORE PUSH1 0x4 DUP1 CALLDATASIZE LT ISZERO PUSH2 0x50 JUMPI JUMPDEST POP CALLDATASIZE ISZERO PUSH2 0x1B JUMPI PUSH1 0x0 DUP1 REVERT JUMPDEST PUSH1 0x40 MLOAD CALLVALUE DUP2 MSTORE PUSH1 0x0 PUSH1 0x20 DUP3 ADD MSTORE PUSH32 0x27750877B9EDB8879A0CD09D5D567A634376447B06F0774029736FAE52F2337 PUSH1 0x40 CALLER SWAP3 LOG2 STOP JUMPDEST PUSH1 0x0 CALLDATALOAD PUSH1 0xE0 SHR DUP1 PUSH4 0x5A1450D EQ PUSH2 0xE92 JUMPI DUP1 PUSH4 0x12E8E2C3 EQ PUSH2 0xDF8 JUMPI DUP1 PUSH4 0x22B19AF7 EQ PUSH2 0xCC4 JUMPI DUP1 PUSH4 0x26232A2E EQ PUSH2 0xCA6 JUMPI DUP1 PUSH4 0x31F7D964 EQ PUSH2 0xC8A JUMPI DUP1 PUSH4 0x3F4BA83A EQ PUSH2 0xBEC JUMPI DUP1 PUSH4 0x4B57B0BE EQ PUSH2 0xBC3 JUMPI DUP1 PUSH4 0x4E9C1118 EQ PUSH2 0xB82 JUMPI DUP1 PUSH4 0x5012E0A4 EQ PUSH2 0xA24 JUMPI DUP1 PUSH4 0x564201F9 EQ PUSH2 0xA02 JUMPI DUP1 PUSH4 0x5C975ABB EQ PUSH2 0x9DC JUMPI DUP1 PUSH4 0x715018A6 EQ PUSH2 0x97F JUMPI DUP1 PUSH4 0x8456CB59 EQ PUSH2 0x91D JUMPI DUP1 PUSH4 0x877056CF EQ PUSH2 0x8DE JUMPI DUP1 PUSH4 0x8C51222E EQ PUSH2 0x8C2 JUMPI DUP1 PUSH4 0x8DA5CB5B EQ PUSH2 0x899 JUMPI DUP1 PUSH4 0xB29A8140 EQ PUSH2 0x85A JUMPI DUP1 PUSH4 0xE1F1C4A7 EQ PUSH2 0x83D JUMPI DUP1 PUSH4 0xE7C68C42 EQ PUSH2 0x3F0 JUMPI DUP1 PUSH4 0xF2555278 EQ PUSH2 0x2F5 JUMPI DUP1 PUSH4 0xF2FDE38B EQ PUSH2 0x22B JUMPI DUP1 PUSH4 0xF88C31CE EQ PUSH2 0x18F JUMPI PUSH4 0xFCF66664 SUB PUSH2 0xF JUMPI CALLVALUE PUSH2 0x18A JUMPI PUSH1 0x20 CALLDATASIZE PUSH1 0x3 NOT ADD SLT PUSH2 0x18A JUMPI PUSH1 0x1 PUSH1 0x1 PUSH1 0xA0 SHL SUB PUSH2 0x173 PUSH2 0x1187 JUMP JUMPDEST AND PUSH1 0x0 MSTORE PUSH1 0x20 MSTORE PUSH1 0x20 PUSH1 0x40 PUSH1 0x0 KECCAK256 SLOAD PUSH1 0x40 MLOAD SWAP1 DUP2 MSTORE RETURN JUMPDEST PUSH1 0x0 DUP1 REVERT JUMPDEST CALLVALUE PUSH2 0x18A JUMPI PUSH1 0x0 CALLDATASIZE PUSH1 0x3 NOT ADD SLT PUSH2 0x18A JUMPI PUSH1 0x40 MLOAD DUP1 PUSH1 0x6 SLOAD SWAP2 DUP3 DUP2 MSTORE PUSH1 0x20 DUP1 SWAP2 ADD SWAP3 PUSH1 0x6 PUSH1 0x0 MSTORE PUSH32 0xF652222313E28459528D920B65115C16C04F3EFC82AAEDC97BE59F3F377C0D3F SWAP2 PUSH1 0x0 SWAP1 JUMPDEST DUP3 DUP3 LT PUSH2 0x20B JUMPI PUSH2 0x207 DUP6 PUSH2 0x1F3 DUP2 DUP10 SUB DUP3 PUSH2 0x13AD JUMP JUMPDEST PUSH1 0x40 MLOAD SWAP2 DUP3 SWAP2 PUSH1 0x20 DUP4 MSTORE PUSH1 0x20 DUP4 ADD SWAP1 PUSH2 0x1200 JUMP JUMPDEST SUB SWAP1 RETURN JUMPDEST DUP4 SLOAD PUSH1 0x1 PUSH1 0x1 PUSH1 0xA0 SHL SUB AND DUP7 MSTORE SWAP5 DUP6 ADD SWAP5 PUSH1 0x1 SWAP4 DUP5 ADD SWAP4 SWAP1 SWAP2 ADD SWAP1 PUSH2 0x1DC JUMP JUMPDEST POP CALLVALUE PUSH2 0x18A JUMPI PUSH1 0x20 CALLDATASIZE PUSH1 0x3 NOT ADD SLT PUSH2 0x18A JUMPI PUSH2 0x245 PUSH2 0x1187 JUMP JUMPDEST PUSH2 0x24D PUSH2 0x18D4 JUMP JUMPDEST PUSH1 0x1 PUSH1 0x1 PUSH1 0xA0 SHL SUB SWAP1 DUP2 AND SWAP2 DUP3 ISZERO PUSH2 0x2A2 JUMPI POP PUSH1 0x1 SLOAD DUP3 PUSH12 0xFFFFFFFFFFFFFFFFFFFFFFFF PUSH1 0xA0 SHL DUP3 AND OR PUSH1 0x1 SSTORE AND PUSH32 0x8BE0079C531659141344CD1FD0A4F28419497F9722A3DAAFE3B4186F6B6457E0 PUSH1 0x0 DUP1 LOG3 STOP JUMPDEST PUSH1 0x84 SWAP1 PUSH1 0x20 PUSH1 0x40 MLOAD SWAP2 PUSH3 0x461BCD PUSH1 0xE5 SHL DUP4 MSTORE DUP3 ADD MSTORE PUSH1 0x26 PUSH1 0x24 DUP3 ADD MSTORE PUSH32 0x4F776E61626C653A206E6577206F776E657220697320746865207A65726F2061 PUSH1 0x44 DUP3 ADD MSTORE PUSH6 0x646472657373 PUSH1 0xD0 SHL PUSH1 0x64 DUP3 ADD MSTORE REVERT JUMPDEST POP CALLVALUE PUSH2 0x18A JUMPI PUSH1 0x40 CALLDATASIZE PUSH1 0x3 NOT ADD SLT PUSH2 0x18A JUMPI PUSH2 0x30F PUSH2 0x1187 JUMP JUMPDEST SWAP1 PUSH2 0x318 PUSH2 0x119D JUMP JUMPDEST SWAP1 PUSH2 0x321 PUSH2 0x18D4 JUMP JUMPDEST PUSH2 0x329 PUSH2 0x13E5 JUMP JUMPDEST PUSH1 0x1 PUSH1 0x1 PUSH1 0xA0 SHL SUB DUP3 DUP2 AND SWAP4 PUSH2 0x340 DUP6 ISZERO ISZERO PUSH2 0x123D JUMP JUMPDEST AND SWAP2 DUP3 PUSH1 0x0 MSTORE DUP2 PUSH1 0x20 MSTORE PUSH1 0x40 PUSH1 0x0 KECCAK256 SLOAD SWAP2 DUP3 ISZERO PUSH2 0x3A1 JUMPI SWAP2 PUSH2 0x393 DUP2 PUSH1 0x20 SWAP4 PUSH31 0xED5939179DC194223F0EDD1517ECEE2210B22DA7F82C8E4B1795E93B9F06AA SWAP6 DUP8 PUSH1 0x0 MSTORE DUP6 MSTORE PUSH1 0x0 PUSH1 0x40 DUP2 KECCAK256 SSTORE DUP7 PUSH2 0x183E JUMP JUMPDEST PUSH1 0x40 MLOAD SWAP1 DUP2 MSTORE LOG3 PUSH1 0x1 PUSH1 0x0 SSTORE STOP JUMPDEST PUSH1 0x84 SWAP1 PUSH1 0x20 PUSH1 0x40 MLOAD SWAP2 PUSH3 0x461BCD PUSH1 0xE5 SHL DUP4 MSTORE DUP3 ADD MSTORE PUSH1 0x22 PUSH1 0x24 DUP3 ADD MSTORE PUSH32 0x4E6F20616363756D756C61746564206665657320666F72207468697320746F6B PUSH1 0x44 DUP3 ADD MSTORE PUSH2 0x32B7 PUSH1 0xF1 SHL PUSH1 0x64 DUP3 ADD MSTORE REVERT JUMPDEST POP CALLVALUE PUSH2 0x18A JUMPI PUSH1 0xA0 CALLDATASIZE PUSH1 0x3 NOT ADD SLT PUSH2 0x18A JUMPI DUP1 CALLDATALOAD PUSH8 0xFFFFFFFFFFFFFFFF DUP2 GT PUSH2 0x18A JUMPI PUSH2 0x420 SWAP1 CALLDATASIZE SWAP1 DUP4 ADD PUSH2 0x1140 JUMP JUMPDEST PUSH2 0x428 PUSH2 0x119D JUMP JUMPDEST SWAP1 PUSH2 0x431 PUSH2 0x1171 JUMP JUMPDEST SWAP2 PUSH2 0x43A PUSH2 0x13E5 JUMP JUMPDEST PUSH2 0x442 PUSH2 0x143B JUMP JUMPDEST DUP2 ISZERO DUP1 ISZERO DUP1 PUSH2 0x832 JUMPI JUMPDEST ISZERO PUSH2 0x7F8 JUMPI PUSH1 0x44 CALLDATALOAD ISZERO PUSH2 0x7BB JUMPI PUSH2 0x46D PUSH1 0x1 PUSH1 0x1 PUSH1 0xA0 SHL SUB DUP6 AND ISZERO ISZERO PUSH2 0x123D JUMP JUMPDEST PUSH2 0x478 PUSH1 0x84 CALLDATALOAD PUSH2 0x1482 JUMP JUMPDEST PUSH2 0x7A6 JUMPI DUP4 CALLDATALOAD PUSH1 0x7E NOT DUP6 CALLDATASIZE SUB ADD DUP2 SLT ISZERO PUSH2 0x18A JUMPI PUSH2 0x498 SWAP1 DUP6 ADD DUP1 PUSH2 0x1377 JUMP JUMPDEST ISZERO PUSH2 0x791 JUMPI PUSH2 0x4A6 SWAP1 PUSH2 0x12D1 JUMP JUMPDEST SWAP3 PUSH1 0x0 SWAP5 PUSH1 0x0 SWAP2 PUSH1 0x0 JUMPDEST DUP6 DUP2 LT PUSH2 0x615 JUMPI POP PUSH1 0x44 CALLDATALOAD DUP8 LT PUSH2 0x5D1 JUMPI PUSH2 0x4D6 SWAP1 DUP8 SWAP1 PUSH1 0x1 PUSH1 0x1 PUSH1 0xA0 SHL SUB DUP7 AND PUSH2 0x183E JUMP JUMPDEST DUP2 PUSH2 0x5C2 JUMPI JUMPDEST SWAP3 PUSH1 0x0 SWAP4 PUSH1 0x0 SWAP2 JUMPDEST DUP1 DUP4 LT PUSH2 0x59B JUMPI POP POP POP PUSH1 0x40 MLOAD SWAP6 PUSH1 0x20 DUP8 ADD SWAP1 DUP8 DUP3 LT PUSH8 0xFFFFFFFFFFFFFFFF DUP4 GT OR PUSH2 0x586 JUMPI POP PUSH1 0x20 SWAP7 PUSH32 0x369AA8CD135FF19620B8A3A0F6FBB449758C2B8544A4E6B23EF7311B617ED6A3 SWAP3 PUSH2 0x55C SWAP3 PUSH1 0x40 MSTORE PUSH1 0x0 DUP3 MSTORE PUSH1 0x40 MLOAD SWAP6 DUP7 MSTORE DUP8 DUP10 DUP8 ADD MSTORE PUSH1 0x40 DUP7 ADD MSTORE PUSH1 0xA0 PUSH1 0x60 DUP7 ADD MSTORE PUSH1 0xA0 DUP6 ADD SWAP1 PUSH2 0x1200 JUMP JUMPDEST TIMESTAMP PUSH1 0x80 DUP6 ADD MSTORE PUSH1 0x1 PUSH1 0x1 PUSH1 0xA0 SHL SUB SWAP3 DUP4 AND SWAP5 SWAP1 SWAP3 AND SWAP3 CALLER SWAP3 DUP2 SWAP1 SUB SWAP1 LOG4 PUSH1 0x1 PUSH1 0x0 SSTORE PUSH1 0x40 MLOAD SWAP1 DUP2 MSTORE RETURN JUMPDEST PUSH1 0x41 SWAP1 PUSH4 0x4E487B71 PUSH1 0xE0 SHL PUSH1 0x0 MSTORE MSTORE PUSH1 0x24 PUSH1 0x0 REVERT JUMPDEST SWAP1 SWAP2 SWAP5 PUSH2 0x5B9 PUSH1 0x1 SWAP2 PUSH1 0x20 PUSH2 0x5B1 DUP10 DUP7 DUP9 PUSH2 0x1355 JUMP JUMPDEST ADD CALLDATALOAD SWAP1 PUSH2 0x1877 JUMP JUMPDEST SWAP6 ADD SWAP2 SWAP1 PUSH2 0x4E4 JUMP JUMPDEST PUSH2 0x5CC DUP3 DUP7 PUSH2 0x1884 JUMP JUMPDEST PUSH2 0x4DC JUMP JUMPDEST PUSH1 0x40 MLOAD PUSH3 0x461BCD PUSH1 0xE5 SHL DUP2 MSTORE PUSH1 0x20 DUP2 DUP11 ADD MSTORE PUSH1 0x19 PUSH1 0x24 DUP3 ADD MSTORE PUSH32 0x496E73756666696369656E742073706C6974206F757470757400000000000000 PUSH1 0x44 DUP3 ADD MSTORE PUSH1 0x64 SWAP1 REVERT JUMPDEST SWAP3 SWAP7 PUSH2 0x622 DUP5 DUP8 DUP6 PUSH2 0x1355 JUMP JUMPDEST SWAP1 PUSH1 0x1 PUSH1 0x1 PUSH1 0xA0 SHL SUB PUSH2 0x637 PUSH1 0x60 DUP5 ADD PUSH2 0x12D1 JUMP JUMPDEST AND PUSH1 0x0 MSTORE PUSH1 0x5 PUSH1 0x20 MSTORE PUSH2 0x651 PUSH1 0xFF PUSH1 0x40 PUSH1 0x0 KECCAK256 SLOAD AND PUSH2 0x127D JUMP JUMPDEST PUSH2 0x65B DUP3 DUP1 PUSH2 0x1377 JUMP JUMPDEST SWAP1 PUSH2 0x666 DUP5 DUP1 PUSH2 0x1377 JUMP JUMPDEST DUP1 SWAP3 SWAP2 POP PUSH1 0x0 NOT DUP2 ADD GT PUSH2 0x77C JUMPI PUSH1 0x1 PUSH1 0x1 PUSH1 0xA0 SHL SUB DUP10 DUP2 AND SWAP4 SWAP1 SWAP3 PUSH2 0x69C SWAP3 PUSH2 0x697 SWAP3 PUSH1 0x0 NOT SWAP1 SWAP3 ADD SWAP2 SWAP1 PUSH2 0x12C1 JUMP JUMPDEST PUSH2 0x12D1 JUMP JUMPDEST AND SUB PUSH2 0x741 JUMPI PUSH1 0x1 SWAP2 PUSH2 0x73A SWAP2 PUSH2 0x734 SWAP1 PUSH2 0x6C6 PUSH1 0x20 DUP5 ADD CALLDATALOAD ADDRESS CALLER PUSH1 0x1 PUSH1 0x1 PUSH1 0xA0 SHL SUB DUP16 AND PUSH2 0x14CF JUMP JUMPDEST PUSH2 0x72E DUP12 PUSH2 0x6DA PUSH1 0x3 SLOAD PUSH1 0x20 DUP8 ADD CALLDATALOAD PUSH2 0x152A JUMP JUMPDEST SWAP5 PUSH2 0x707 PUSH2 0x6EC DUP8 PUSH1 0x20 DUP5 ADD CALLDATALOAD PUSH2 0x12E5 JUMP JUMPDEST DUP1 SWAP4 PUSH2 0x6FA PUSH1 0x60 DUP6 ADD PUSH2 0x12D1 JUMP JUMPDEST SWAP1 DUP12 DUP1 PUSH1 0xA0 SHL SUB AND PUSH2 0x1585 JUMP JUMPDEST PUSH2 0x713 PUSH1 0x60 DUP3 ADD PUSH2 0x12D1 JUMP JUMPDEST PUSH2 0x71D DUP3 DUP1 PUSH2 0x1377 JUMP JUMPDEST SWAP2 PUSH1 0x84 CALLDATALOAD SWAP5 PUSH1 0x40 ADDRESS SWAP6 ADD CALLDATALOAD SWAP2 PUSH2 0x16C9 JUMP JUMPDEST SWAP1 PUSH2 0x1877 JUMP JUMPDEST SWAP10 PUSH2 0x1877 JUMP JUMPDEST SWAP4 ADD PUSH2 0x4B0 JUMP JUMPDEST PUSH1 0x40 MLOAD PUSH3 0x461BCD PUSH1 0xE5 SHL DUP2 MSTORE PUSH1 0x20 DUP2 DUP13 ADD MSTORE PUSH1 0x14 PUSH1 0x24 DUP3 ADD MSTORE PUSH20 0x24B73B30B634B21037BABA383ABA103A37B5B2B7 PUSH1 0x61 SHL PUSH1 0x44 DUP3 ADD MSTORE PUSH1 0x64 SWAP1 REVERT JUMPDEST PUSH1 0x11 DUP14 PUSH4 0x4E487B71 PUSH1 0xE0 SHL PUSH1 0x0 MSTORE MSTORE PUSH1 0x24 PUSH1 0x0 REVERT JUMPDEST PUSH1 0x32 DUP7 PUSH4 0x4E487B71 PUSH1 0xE0 SHL PUSH1 0x0 MSTORE MSTORE PUSH1 0x24 PUSH1 0x0 REVERT JUMPDEST PUSH1 0x32 DUP6 PUSH4 0x4E487B71 PUSH1 0xE0 SHL PUSH1 0x0 MSTORE MSTORE PUSH1 0x24 PUSH1 0x0 REVERT JUMPDEST PUSH1 0x40 MLOAD PUSH3 0x461BCD PUSH1 0xE5 SHL DUP2 MSTORE PUSH1 0x20 DUP2 DUP9 ADD MSTORE PUSH1 0x16 PUSH1 0x24 DUP3 ADD MSTORE PUSH22 0x125B9D985B1A59081B5A5B9A5B5D5B481BDD5D1C1D5D PUSH1 0x52 SHL PUSH1 0x44 DUP3 ADD MSTORE PUSH1 0x64 SWAP1 REVERT JUMPDEST PUSH1 0x40 MLOAD PUSH3 0x461BCD PUSH1 0xE5 SHL DUP2 MSTORE PUSH1 0x20 DUP2 DUP9 ADD MSTORE PUSH1 0x13 PUSH1 0x24 DUP3 ADD MSTORE PUSH19 0x125B9D985B1A59081CDC1B1A5D0818DBDD5B9D PUSH1 0x6A SHL PUSH1 0x44 DUP3 ADD MSTORE PUSH1 0x64 SWAP1 REVERT JUMPDEST POP PUSH1 0x3 DUP4 GT ISZERO PUSH2 0x44C JUMP JUMPDEST CALLVALUE PUSH2 0x18A JUMPI PUSH1 0x0 CALLDATASIZE PUSH1 0x3 NOT ADD SLT PUSH2 0x18A JUMPI PUSH1 0x20 PUSH1 0x40 MLOAD PUSH2 0x2710 DUP2 MSTORE RETURN JUMPDEST CALLVALUE PUSH2 0x18A JUMPI PUSH1 0x40 CALLDATASIZE PUSH1 0x3 NOT ADD SLT PUSH2 0x18A JUMPI PUSH2 0x897 PUSH2 0x876 PUSH2 0x1187 JUMP JUMPDEST PUSH2 0x87E PUSH2 0x18D4 JUMP JUMPDEST PUSH1 0x1 SLOAD PUSH1 0x24 CALLDATALOAD SWAP2 PUSH1 0x1 PUSH1 0x1 PUSH1 0xA0 SHL SUB SWAP2 DUP3 AND SWAP2 AND PUSH2 0x183E JUMP JUMPDEST STOP JUMPDEST CALLVALUE PUSH2 0x18A JUMPI PUSH1 0x0 CALLDATASIZE PUSH1 0x3 NOT ADD SLT PUSH2 0x18A JUMPI PUSH1 0x1 SLOAD PUSH1 0x40 MLOAD PUSH1 0x1 PUSH1 0x1 PUSH1 0xA0 SHL SUB SWAP1 SWAP2 AND DUP2 MSTORE PUSH1 0x20 SWAP1 RETURN JUMPDEST CALLVALUE PUSH2 0x18A JUMPI PUSH1 0x0 CALLDATASIZE PUSH1 0x3 NOT ADD SLT PUSH2 0x18A JUMPI PUSH1 0x20 PUSH1 0x40 MLOAD PUSH1 0x5 DUP2 MSTORE RETURN JUMPDEST CALLVALUE PUSH2 0x18A JUMPI PUSH1 0x20 CALLDATASIZE PUSH1 0x3 NOT ADD SLT PUSH2 0x18A JUMPI PUSH1 0x1 PUSH1 0x1 PUSH1 0xA0 SHL SUB PUSH2 0x8FF PUSH2 0x1187 JUMP JUMPDEST AND PUSH1 0x0 MSTORE PUSH1 0x5 PUSH1 0x20 MSTORE PUSH1 0x20 PUSH1 0xFF PUSH1 0x40 PUSH1 0x0 KECCAK256 SLOAD AND PUSH1 0x40 MLOAD SWAP1 ISZERO ISZERO DUP2 MSTORE RETURN JUMPDEST CALLVALUE PUSH2 0x18A JUMPI PUSH1 0x0 CALLDATASIZE PUSH1 0x3 NOT ADD SLT PUSH2 0x18A JUMPI PUSH2 0x936 PUSH2 0x18D4 JUMP JUMPDEST PUSH2 0x93E PUSH2 0x143B JUMP JUMPDEST PUSH1 0x1 DUP1 SLOAD PUSH1 0xFF PUSH1 0xA0 SHL NOT AND PUSH1 0x1 PUSH1 0xA0 SHL OR SWAP1 SSTORE PUSH1 0x40 MLOAD CALLER DUP2 MSTORE PUSH32 0x62E78CEA01BEE320CD4E420270B5EA74000D11B0C9F74754EBDBFC544B05A258 SWAP1 PUSH1 0x20 SWAP1 LOG1 STOP JUMPDEST CALLVALUE PUSH2 0x18A JUMPI PUSH1 0x0 CALLDATASIZE PUSH1 0x3 NOT ADD SLT PUSH2 0x18A JUMPI PUSH2 0x998 PUSH2 0x18D4 JUMP JUMPDEST PUSH1 0x1 DUP1 SLOAD PUSH1 0x1 PUSH1 0x1 PUSH1 0xA0 SHL SUB NOT DUP2 AND SWAP1 SWAP2 SSTORE PUSH1 0x0 SWAP1 PUSH1 0x1 PUSH1 0x1 PUSH1 0xA0 SHL SUB AND PUSH32 0x8BE0079C531659141344CD1FD0A4F28419497F9722A3DAAFE3B4186F6B6457E0 DUP3 DUP1 LOG3 STOP JUMPDEST CALLVALUE PUSH2 0x18A JUMPI PUSH1 0x0 CALLDATASIZE PUSH1 0x3 NOT ADD SLT PUSH2 0x18A JUMPI PUSH1 0x20 PUSH1 0xFF PUSH1 0x1 SLOAD PUSH1 0xA0 SHR AND PUSH1 0x40 MLOAD SWAP1 ISZERO ISZERO DUP2 MSTORE RETURN JUMPDEST POP CALLVALUE PUSH2 0x18A JUMPI PUSH1 0x20 CALLDATASIZE PUSH1 0x3 NOT ADD SLT PUSH2 0x18A JUMPI PUSH1 0x1 PUSH1 0x1 PUSH1 0xA0 SHL SUB PUSH2 0x173 PUSH2 0x1187 JUMP JUMPDEST POP CALLVALUE PUSH2 0x18A JUMPI PUSH1 0x20 CALLDATASIZE PUSH1 0x3 NOT ADD SLT PUSH2 0x18A JUMPI PUSH2 0xA3E PUSH2 0x1187 JUMP JUMPDEST SWAP1 PUSH2 0xA47 PUSH2 0x18D4 JUMP JUMPDEST PUSH1 0x1 DUP1 PUSH1 0xA0 SHL SUB DUP1 SWAP3 AND SWAP2 DUP3 PUSH1 0x0 MSTORE PUSH1 0x5 PUSH1 0x20 MSTORE PUSH2 0xA6C PUSH1 0xFF PUSH1 0x40 PUSH1 0x0 KECCAK256 SLOAD AND PUSH2 0x127D JUMP JUMPDEST PUSH1 0x0 DUP4 DUP2 MSTORE PUSH1 0x5 PUSH1 0x20 MSTORE PUSH1 0x40 DUP2 KECCAK256 DUP1 SLOAD PUSH1 0xFF NOT AND SWAP1 SSTORE JUMPDEST PUSH1 0x6 DUP1 SLOAD SWAP1 DUP2 DUP4 LT ISZERO PUSH2 0xB78 JUMPI DUP4 SWAP2 DUP7 PUSH2 0xA9C DUP6 PUSH2 0x11B3 JUMP JUMPDEST SWAP5 SWAP1 SLOAD PUSH1 0x3 SWAP6 DUP7 SHL SHR AND EQ PUSH2 0xAB6 JUMPI POP POP POP PUSH1 0x1 ADD PUSH2 0xA83 JUMP JUMPDEST SWAP2 SWAP5 SWAP1 SWAP4 SWAP3 PUSH1 0x0 NOT SWAP3 DUP4 DUP2 ADD SWAP1 DUP2 GT PUSH2 0xB63 JUMPI SWAP1 PUSH2 0xAE7 DUP6 PUSH2 0xADA PUSH2 0xB05 SWAP5 PUSH2 0x11B3 JUMP JUMPDEST SWAP1 SLOAD SWAP1 DUP11 SHL SHR AND SWAP2 PUSH2 0x11B3 JUMP JUMPDEST SWAP1 SWAP2 SWAP1 PUSH1 0x1 DUP1 PUSH1 0xA0 SHL SUB DUP1 DUP5 SLOAD SWAP3 PUSH1 0x3 SHL SWAP4 AND DUP4 SHL SWAP3 SHL NOT AND OR SWAP1 SSTORE JUMP JUMPDEST DUP4 SLOAD SWAP1 DUP2 ISZERO PUSH2 0xB4E JUMPI POP ADD SWAP3 PUSH2 0xB1A DUP5 PUSH2 0x11B3 JUMP JUMPDEST DUP2 SWAP4 SWAP2 SLOAD SWAP3 SHL SHL NOT AND SWAP1 SSTORE SSTORE JUMPDEST PUSH32 0x75651C5C467D4644A640A67BB1F11C3B5E6E05C68283A21A248C9B2685E4FA09 PUSH1 0x0 DUP1 LOG2 STOP JUMPDEST PUSH1 0x31 SWAP1 PUSH4 0x4E487B71 PUSH1 0xE0 SHL PUSH1 0x0 MSTORE MSTORE PUSH1 0x24 PUSH1 0x0 REVERT JUMPDEST PUSH1 0x11 DUP4 PUSH4 0x4E487B71 PUSH1 0xE0 SHL PUSH1 0x0 MSTORE MSTORE PUSH1 0x24 PUSH1 0x0 REVERT JUMPDEST POP POP POP POP POP PUSH2 0xB27 JUMP JUMPDEST POP CALLVALUE PUSH2 0x18A JUMPI PUSH1 0x20 CALLDATASIZE PUSH1 0x3 NOT ADD SLT PUSH2 0x18A JUMPI CALLDATALOAD PUSH1 0x6 SLOAD DUP2 LT ISZERO PUSH2 0x18A JUMPI PUSH2 0xBAA PUSH1 0x20 SWAP2 PUSH2 0x11B3 JUMP JUMPDEST SWAP1 SLOAD PUSH1 0x40 MLOAD PUSH1 0x3 SWAP3 SWAP1 SWAP3 SHL SHR PUSH1 0x1 PUSH1 0x1 PUSH1 0xA0 SHL SUB AND DUP2 MSTORE RETURN JUMPDEST CALLVALUE PUSH2 0x18A JUMPI PUSH1 0x0 CALLDATASIZE PUSH1 0x3 NOT ADD SLT PUSH2 0x18A JUMPI PUSH1 0x2 SLOAD PUSH1 0x40 MLOAD PUSH1 0x1 PUSH1 0x1 PUSH1 0xA0 SHL SUB SWAP1 SWAP2 AND DUP2 MSTORE PUSH1 0x20 SWAP1 RETURN JUMPDEST POP CALLVALUE PUSH2 0x18A JUMPI PUSH1 0x0 CALLDATASIZE PUSH1 0x3 NOT ADD SLT PUSH2 0x18A JUMPI PUSH2 0xC06 PUSH2 0x18D4 JUMP JUMPDEST PUSH1 0x1 SLOAD SWAP1 PUSH1 0xFF DUP3 PUSH1 0xA0 SHR AND ISZERO PUSH2 0xC4F JUMPI POP PUSH1 0xFF PUSH1 0xA0 SHL NOT AND PUSH1 0x1 SSTORE PUSH1 0x40 MLOAD CALLER DUP2 MSTORE PUSH32 0x5DB9EE0A495BF2E6FF9C91A7834C1BA4FDD244A5E8AA4E537BD38AEAE4B073AA SWAP1 PUSH1 0x20 SWAP1 LOG1 STOP JUMPDEST PUSH1 0x64 SWAP1 PUSH1 0x20 PUSH1 0x40 MLOAD SWAP2 PUSH3 0x461BCD PUSH1 0xE5 SHL DUP4 MSTORE DUP3 ADD MSTORE PUSH1 0x14 PUSH1 0x24 DUP3 ADD MSTORE PUSH20 0x14185D5CD8589B194E881B9BDD081C185D5CD959 PUSH1 0x62 SHL PUSH1 0x44 DUP3 ADD MSTORE REVERT JUMPDEST CALLVALUE PUSH2 0x18A JUMPI PUSH1 0x0 CALLDATASIZE PUSH1 0x3 NOT ADD SLT PUSH2 0x18A JUMPI PUSH1 0x20 PUSH1 0x40 MLOAD PUSH1 0x0 DUP2 MSTORE RETURN JUMPDEST CALLVALUE PUSH2 0x18A JUMPI PUSH1 0x0 CALLDATASIZE PUSH1 0x3 NOT ADD SLT PUSH2 0x18A JUMPI PUSH1 0x20 PUSH1 0x3 SLOAD PUSH1 0x40 MLOAD SWAP1 DUP2 MSTORE RETURN JUMPDEST POP CALLVALUE PUSH2 0x18A JUMPI PUSH1 0x20 CALLDATASIZE PUSH1 0x3 NOT ADD SLT PUSH2 0x18A JUMPI PUSH2 0xCDE PUSH2 0x1187 JUMP JUMPDEST PUSH2 0xCE6 PUSH2 0x18D4 JUMP JUMPDEST PUSH1 0x1 PUSH1 0x1 PUSH1 0xA0 SHL SUB DUP2 AND SWAP2 DUP3 ISZERO PUSH2 0xDBB JUMPI DUP3 PUSH1 0x0 MSTORE PUSH1 0x5 PUSH1 0x20 MSTORE PUSH1 0xFF PUSH1 0x40 PUSH1 0x0 KECCAK256 SLOAD AND PUSH2 0xD77 JUMPI DUP3 PUSH1 0x0 MSTORE PUSH1 0x5 PUSH1 0x20 MSTORE PUSH1 0x40 PUSH1 0x0 KECCAK256 PUSH1 0x1 PUSH1 0xFF NOT DUP3 SLOAD AND OR SWAP1 SSTORE PUSH1 0x6 SLOAD SWAP1 PUSH9 0x10000000000000000 DUP3 LT ISZERO PUSH2 0x586 JUMPI POP SWAP1 PUSH2 0xAE7 DUP3 PUSH1 0x1 PUSH2 0xD50 SWAP5 ADD PUSH1 0x6 SSTORE PUSH2 0x11B3 JUMP JUMPDEST PUSH32 0x94DF8C3A8087DCE110E5FBC5ACF380C83C94BBD31B2C8ED4C08E1396A696E1A8 PUSH1 0x0 DUP1 LOG2 STOP JUMPDEST PUSH1 0x64 SWAP1 PUSH1 0x20 PUSH1 0x40 MLOAD SWAP2 PUSH3 0x461BCD PUSH1 0xE5 SHL DUP4 MSTORE DUP3 ADD MSTORE PUSH1 0x19 PUSH1 0x24 DUP3 ADD MSTORE PUSH32 0x526F7574657220616C7265616479207265676973746572656400000000000000 PUSH1 0x44 DUP3 ADD MSTORE REVERT JUMPDEST PUSH1 0x64 SWAP1 PUSH1 0x20 PUSH1 0x40 MLOAD SWAP2 PUSH3 0x461BCD PUSH1 0xE5 SHL DUP4 MSTORE DUP3 ADD MSTORE PUSH1 0x16 PUSH1 0x24 DUP3 ADD MSTORE PUSH22 0x496E76616C696420726F757465722061646472657373 PUSH1 0x50 SHL PUSH1 0x44 DUP3 ADD MSTORE REVERT JUMPDEST POP CALLVALUE PUSH2 0x18A JUMPI PUSH1 0x20 CALLDATASIZE PUSH1 0x3 NOT ADD SLT PUSH2 0x18A JUMPI DUP1 CALLDATALOAD SWAP1 PUSH2 0xE15 PUSH2 0x18D4 JUMP JUMPDEST PUSH1 0x1E DUP3 GT PUSH2 0xE4E JUMPI PUSH32 0x45610D581145924DD7090A5017E5F2B1D6F42213BB2E95707FF86846BBFCB1CA PUSH1 0x20 DUP4 DUP1 PUSH1 0x3 SSTORE PUSH1 0x40 MLOAD SWAP1 DUP2 MSTORE LOG1 STOP JUMPDEST PUSH1 0x64 SWAP1 PUSH1 0x20 PUSH1 0x40 MLOAD SWAP2 PUSH3 0x461BCD PUSH1 0xE5 SHL DUP4 MSTORE DUP3 ADD MSTORE PUSH1 0x18 PUSH1 0x24 DUP3 ADD MSTORE PUSH32 0x4665652065786365656473206D6178696D756D20302E33250000000000000000 PUSH1 0x44 DUP3 ADD MSTORE REVERT JUMPDEST POP CALLVALUE PUSH2 0x18A JUMPI PUSH1 0xC0 CALLDATASIZE PUSH1 0x3 NOT ADD SLT PUSH2 0x18A JUMPI PUSH1 0x24 SWAP1 DUP2 CALLDATALOAD DUP2 CALLDATALOAD PUSH1 0x44 CALLDATALOAD PUSH8 0xFFFFFFFFFFFFFFFF DUP2 GT PUSH2 0x18A JUMPI PUSH2 0xECA SWAP1 CALLDATASIZE SWAP1 DUP6 ADD PUSH2 0x1140 JUMP JUMPDEST SWAP2 SWAP1 PUSH2 0xED4 PUSH2 0x1171 JUMP JUMPDEST SWAP3 PUSH1 0xA4 CALLDATALOAD PUSH1 0x1 PUSH1 0x1 PUSH1 0xA0 SHL SUB PUSH1 0x84 CALLDATALOAD DUP2 DUP4 AND DUP1 DUP5 SUB PUSH2 0x18A JUMPI PUSH2 0xEF5 PUSH2 0x13E5 JUMP JUMPDEST PUSH2 0xEFD PUSH2 0x143B JUMP JUMPDEST PUSH1 0x2 DUP6 LT ISZERO DUP1 PUSH2 0x1135 JUMPI JUMPDEST ISZERO PUSH2 0x10FC JUMPI DUP7 ISZERO PUSH2 0x10C2 JUMPI PUSH2 0xF20 DUP4 DUP10 AND ISZERO ISZERO PUSH2 0x123D JUMP JUMPDEST PUSH1 0x0 MSTORE PUSH1 0x5 PUSH1 0x20 MSTORE PUSH2 0xF39 PUSH1 0xFF PUSH1 0x40 PUSH1 0x0 KECCAK256 SLOAD AND PUSH2 0x127D JUMP JUMPDEST PUSH2 0xF42 DUP2 PUSH2 0x1482 JUMP JUMPDEST DUP4 ISZERO PUSH2 0x10AE JUMPI PUSH2 0xF51 DUP6 PUSH2 0x12D1 JUMP JUMPDEST SWAP3 PUSH1 0x0 NOT DUP6 ADD DUP6 DUP2 GT PUSH2 0x109A JUMPI SWAP10 DUP8 SWAP5 SWAP4 SWAP3 SWAP2 PUSH2 0xF73 DUP12 SWAP13 DUP9 DUP11 SWAP14 SWAP13 SWAP14 PUSH2 0x12C1 JUMP JUMPDEST PUSH2 0xF7C SWAP1 PUSH2 0x12D1 JUMP JUMPDEST SWAP3 DUP2 DUP9 DUP11 DUP8 DUP10 AND SWAP14 DUP15 ADDRESS DUP13 CALLER SWAP2 PUSH2 0xF93 SWAP3 DUP5 PUSH2 0x14CF JUMP JUMPDEST PUSH1 0x3 SLOAD PUSH2 0xFA0 SWAP1 DUP14 PUSH2 0x152A JUMP JUMPDEST SWAP12 DUP13 PUSH2 0xFAB SWAP2 PUSH2 0x12E5 JUMP JUMPDEST DUP1 SWAP6 PUSH2 0xFB6 SWAP3 PUSH2 0x1585 JUMP JUMPDEST ADDRESS SWAP4 PUSH2 0xFC1 SWAP7 PUSH2 0x16C9 JUMP JUMPDEST SWAP11 DUP12 LT PUSH2 0x1057 JUMPI POP PUSH1 0x20 SWAP11 POP SWAP2 PUSH2 0x1003 DUP11 PUSH32 0x369AA8CD135FF19620B8A3A0F6FBB449758C2B8544A4E6B23EF7311B617ED6A3 SWAP8 SWAP6 SWAP4 PUSH2 0x102D SWAP8 SWAP6 AND SWAP11 DUP12 PUSH2 0x183E JUMP JUMPDEST DUP2 DUP1 PUSH2 0x1047 JUMPI JUMPDEST POP POP PUSH1 0x40 MLOAD SWAP6 DUP7 MSTORE DUP9 DUP11 DUP8 ADD MSTORE PUSH1 0x40 DUP7 ADD MSTORE PUSH1 0xA0 PUSH1 0x60 DUP7 ADD MSTORE PUSH1 0xA0 DUP6 ADD SWAP2 PUSH2 0x1308 JUMP JUMPDEST SWAP2 TIMESTAMP PUSH1 0x80 DUP3 ADD MSTORE DUP1 CALLER SWAP4 SUB SWAP1 LOG4 PUSH1 0x1 PUSH1 0x0 SSTORE PUSH1 0x40 MLOAD SWAP1 DUP2 MSTORE RETURN JUMPDEST PUSH2 0x1050 SWAP2 PUSH2 0x1884 JUMP JUMPDEST CODESIZE DUP2 PUSH2 0x100A JUMP JUMPDEST PUSH1 0x64 SWAP1 PUSH1 0x1A DUP14 PUSH1 0x20 PUSH1 0x40 MLOAD SWAP4 PUSH3 0x461BCD PUSH1 0xE5 SHL DUP6 MSTORE DUP5 ADD MSTORE DUP3 ADD MSTORE PUSH32 0x496E73756666696369656E74206F757470757420616D6F756E74000000000000 PUSH1 0x44 DUP3 ADD MSTORE REVERT JUMPDEST DUP12 PUSH1 0x11 DUP13 PUSH4 0x4E487B71 PUSH1 0xE0 SHL PUSH1 0x0 MSTORE MSTORE PUSH1 0x0 REVERT JUMPDEST DUP10 PUSH1 0x32 DUP11 PUSH4 0x4E487B71 PUSH1 0xE0 SHL PUSH1 0x0 MSTORE MSTORE PUSH1 0x0 REVERT JUMPDEST PUSH1 0x40 MLOAD PUSH3 0x461BCD PUSH1 0xE5 SHL DUP2 MSTORE PUSH1 0x20 DUP2 DUP13 ADD MSTORE PUSH1 0x14 DUP2 DUP14 ADD MSTORE PUSH20 0x125B9D985B1A59081A5B9C1D5D08185B5BDD5B9D PUSH1 0x62 SHL PUSH1 0x44 DUP3 ADD MSTORE PUSH1 0x64 SWAP1 REVERT JUMPDEST PUSH1 0x40 MLOAD PUSH3 0x461BCD PUSH1 0xE5 SHL DUP2 MSTORE PUSH1 0x20 DUP2 DUP13 ADD MSTORE PUSH1 0x13 DUP2 DUP14 ADD MSTORE PUSH19 0x92DCECC2D8D2C840E0C2E8D040D8CADCCEE8D PUSH1 0x6B SHL PUSH1 0x44 DUP3 ADD MSTORE PUSH1 0x64 SWAP1 REVERT JUMPDEST POP PUSH1 0x5 DUP6 GT ISZERO PUSH2 0xF08 JUMP JUMPDEST SWAP2 DUP2 PUSH1 0x1F DUP5 ADD SLT ISZERO PUSH2 0x18A JUMPI DUP3 CALLDATALOAD SWAP2 PUSH8 0xFFFFFFFFFFFFFFFF DUP4 GT PUSH2 0x18A JUMPI PUSH1 0x20 DUP1 DUP6 ADD SWAP5 DUP5 PUSH1 0x5 SHL ADD ADD GT PUSH2 0x18A JUMPI JUMP JUMPDEST PUSH1 0x64 CALLDATALOAD SWAP1 PUSH1 0x1 PUSH1 0x1 PUSH1 0xA0 SHL SUB DUP3 AND DUP3 SUB PUSH2 0x18A JUMPI JUMP JUMPDEST PUSH1 0x4 CALLDATALOAD SWAP1 PUSH1 0x1 PUSH1 0x1 PUSH1 0xA0 SHL SUB DUP3 AND DUP3 SUB PUSH2 0x18A JUMPI JUMP JUMPDEST PUSH1 0x24 CALLDATALOAD SWAP1 PUSH1 0x1 PUSH1 0x1 PUSH1 0xA0 SHL SUB DUP3 AND DUP3 SUB PUSH2 0x18A JUMPI JUMP JUMPDEST PUSH1 0x6 SLOAD DUP2 LT ISZERO PUSH2 0x11EA JUMPI PUSH1 0x6 PUSH1 0x0 MSTORE PUSH32 0xF652222313E28459528D920B65115C16C04F3EFC82AAEDC97BE59F3F377C0D3F ADD SWAP1 PUSH1 0x0 SWAP1 JUMP JUMPDEST PUSH4 0x4E487B71 PUSH1 0xE0 SHL PUSH1 0x0 MSTORE PUSH1 0x32 PUSH1 0x4 MSTORE PUSH1 0x24 PUSH1 0x0 REVERT JUMPDEST SWAP1 DUP2 MLOAD DUP1 DUP3 MSTORE PUSH1 0x20 DUP1 DUP1 SWAP4 ADD SWAP4 ADD SWAP2 PUSH1 0x0 JUMPDEST DUP3 DUP2 LT PUSH2 0x1220 JUMPI POP POP POP POP SWAP1 JUMP JUMPDEST DUP4 MLOAD PUSH1 0x1 PUSH1 0x1 PUSH1 0xA0 SHL SUB AND DUP6 MSTORE SWAP4 DUP2 ADD SWAP4 SWAP3 DUP2 ADD SWAP3 PUSH1 0x1 ADD PUSH2 0x1212 JUMP JUMPDEST ISZERO PUSH2 0x1244 JUMPI JUMP JUMPDEST PUSH1 0x40 MLOAD PUSH3 0x461BCD PUSH1 0xE5 SHL DUP2 MSTORE PUSH1 0x20 PUSH1 0x4 DUP3 ADD MSTORE PUSH1 0x11 PUSH1 0x24 DUP3 ADD MSTORE PUSH17 0x125B9D985B1A59081C9958DA5C1A595B9D PUSH1 0x7A SHL PUSH1 0x44 DUP3 ADD MSTORE PUSH1 0x64 SWAP1 REVERT JUMPDEST ISZERO PUSH2 0x1284 JUMPI JUMP JUMPDEST PUSH1 0x40 MLOAD PUSH3 0x461BCD PUSH1 0xE5 SHL DUP2 MSTORE PUSH1 0x20 PUSH1 0x4 DUP3 ADD MSTORE PUSH1 0x15 PUSH1 0x24 DUP3 ADD MSTORE PUSH21 0x149BDD5D195C881B9BDD081C9959DA5CDD195C9959 PUSH1 0x5A SHL PUSH1 0x44 DUP3 ADD MSTORE PUSH1 0x64 SWAP1 REVERT JUMPDEST SWAP2 SWAP1 DUP2 LT ISZERO PUSH2 0x11EA JUMPI PUSH1 0x5 SHL ADD SWAP1 JUMP JUMPDEST CALLDATALOAD PUSH1 0x1 PUSH1 0x1 PUSH1 0xA0 SHL SUB DUP2 AND DUP2 SUB PUSH2 0x18A JUMPI SWAP1 JUMP JUMPDEST SWAP2 SWAP1 DUP3 SUB SWAP2 DUP3 GT PUSH2 0x12F2 JUMPI JUMP JUMPDEST PUSH4 0x4E487B71 PUSH1 0xE0 SHL PUSH1 0x0 MSTORE PUSH1 0x11 PUSH1 0x4 MSTORE PUSH1 0x24 PUSH1 0x0 REVERT JUMPDEST SWAP2 SWAP1 DUP1 DUP3 MSTORE PUSH1 0x20 DUP1 SWAP3 ADD SWAP3 SWAP2 PUSH1 0x0 DUP1 JUMPDEST DUP4 DUP3 LT PUSH2 0x1327 JUMPI POP POP POP POP POP SWAP1 JUMP JUMPDEST SWAP1 SWAP2 SWAP3 SWAP4 SWAP5 DUP6 CALLDATALOAD PUSH1 0x1 DUP1 PUSH1 0xA0 SHL SUB DUP2 AND DUP1 SWAP2 SUB PUSH2 0x1351 JUMPI DUP2 MSTORE DUP4 ADD SWAP5 DUP4 ADD SWAP4 SWAP3 SWAP2 PUSH1 0x1 ADD SWAP1 PUSH2 0x1318 JUMP JUMPDEST DUP3 DUP1 REVERT JUMPDEST SWAP2 SWAP1 DUP2 LT ISZERO PUSH2 0x11EA JUMPI PUSH1 0x5 SHL DUP2 ADD CALLDATALOAD SWAP1 PUSH1 0x7E NOT DUP2 CALLDATASIZE SUB ADD DUP3 SLT ISZERO PUSH2 0x18A JUMPI ADD SWAP1 JUMP JUMPDEST SWAP1 CALLDATALOAD SWAP1 PUSH1 0x1E NOT DUP2 CALLDATASIZE SUB ADD DUP3 SLT ISZERO PUSH2 0x18A JUMPI ADD DUP1 CALLDATALOAD SWAP1 PUSH8 0xFFFFFFFFFFFFFFFF DUP3 GT PUSH2 0x18A JUMPI PUSH1 0x20 ADD SWAP2 DUP2 PUSH1 0x5 SHL CALLDATASIZE SUB DUP4 SGT PUSH2 0x18A JUMPI JUMP JUMPDEST SWAP1 PUSH1 0x1F DUP1 NOT SWAP2 ADD AND DUP2 ADD SWAP1 DUP2 LT PUSH8 0xFFFFFFFFFFFFFFFF DUP3 GT OR PUSH2 0x13CF JUMPI PUSH1 0x40 MSTORE JUMP JUMPDEST PUSH4 0x4E487B71 PUSH1 0xE0 SHL PUSH1 0x0 MSTORE PUSH1 0x41 PUSH1 0x4 MSTORE PUSH1 0x24 PUSH1 0x0 REVERT JUMPDEST PUSH1 0x2 PUSH1 0x0 SLOAD EQ PUSH2 0x13F6 JUMPI PUSH1 0x2 PUSH1 0x0 SSTORE JUMP JUMPDEST PUSH1 0x40 MLOAD PUSH3 0x461BCD PUSH1 0xE5 SHL DUP2 MSTORE PUSH1 0x20 PUSH1 0x4 DUP3 ADD MSTORE PUSH1 0x1F PUSH1 0x24 DUP3 ADD MSTORE PUSH32 0x5265656E7472616E637947756172643A207265656E7472616E742063616C6C00 PUSH1 0x44 DUP3 ADD MSTORE PUSH1 0x64 SWAP1 REVERT JUMPDEST PUSH1 0xFF PUSH1 0x1 SLOAD PUSH1 0xA0 SHR AND PUSH2 0x144A JUMPI JUMP JUMPDEST PUSH1 0x40 MLOAD PUSH3 0x461BCD PUSH1 0xE5 SHL DUP2 MSTORE PUSH1 0x20 PUSH1 0x4 DUP3 ADD MSTORE PUSH1 0x10 PUSH1 0x24 DUP3 ADD MSTORE PUSH16 0x14185D5CD8589B194E881C185D5CD959 PUSH1 0x82 SHL PUSH1 0x44 DUP3 ADD MSTORE PUSH1 0x64 SWAP1 REVERT JUMPDEST TIMESTAMP GT PUSH2 0x148A JUMPI JUMP JUMPDEST PUSH1 0x40 MLOAD PUSH3 0x461BCD PUSH1 0xE5 SHL DUP2 MSTORE PUSH1 0x20 PUSH1 0x4 DUP3 ADD MSTORE PUSH1 0x1C PUSH1 0x24 DUP3 ADD MSTORE PUSH32 0x5472616E73616374696F6E20646561646C696E65206578706972656400000000 PUSH1 0x44 DUP3 ADD MSTORE PUSH1 0x64 SWAP1 REVERT JUMPDEST PUSH1 0x40 MLOAD PUSH4 0x23B872DD PUSH1 0xE0 SHL PUSH1 0x20 DUP3 ADD MSTORE PUSH1 0x1 PUSH1 0x1 PUSH1 0xA0 SHL SUB SWAP3 DUP4 AND PUSH1 0x24 DUP3 ADD MSTORE SWAP3 SWAP1 SWAP2 AND PUSH1 0x44 DUP4 ADD MSTORE PUSH1 0x64 DUP1 DUP4 ADD SWAP4 SWAP1 SWAP4 MSTORE SWAP2 DUP2 MSTORE PUSH1 0xA0 DUP2 ADD SWAP2 DUP2 DUP4 LT PUSH8 0xFFFFFFFFFFFFFFFF DUP5 GT OR PUSH2 0x13CF JUMPI PUSH2 0x1528 SWAP3 PUSH1 0x40 MSTORE PUSH2 0x192C JUMP JUMPDEST JUMP JUMPDEST PUSH1 0x1E DUP3 GT PUSH2 0x154A JUMPI DUP2 DUP2 MUL SWAP2 DUP2 DUP4 DIV EQ SWAP1 ISZERO OR ISZERO PUSH2 0x12F2 JUMPI PUSH2 0x2710 SWAP1 DIV SWAP1 JUMP JUMPDEST PUSH1 0x40 MLOAD PUSH3 0x461BCD PUSH1 0xE5 SHL DUP2 MSTORE PUSH1 0x20 PUSH1 0x4 DUP3 ADD MSTORE PUSH1 0x13 PUSH1 0x24 DUP3 ADD MSTORE PUSH19 0x4665652065786365656473206D6178696D756D PUSH1 0x68 SHL PUSH1 0x44 DUP3 ADD MSTORE PUSH1 0x64 SWAP1 REVERT JUMPDEST SWAP2 SWAP1 SWAP2 DUP2 ISZERO DUP1 ISZERO PUSH2 0x1643 JUMPI JUMPDEST ISZERO PUSH2 0x15DF JUMPI PUSH1 0x40 MLOAD PUSH4 0x95EA7B3 PUSH1 0xE0 SHL PUSH1 0x20 DUP3 ADD MSTORE PUSH1 0x1 PUSH1 0x1 PUSH1 0xA0 SHL SUB SWAP1 SWAP4 AND PUSH1 0x24 DUP5 ADD MSTORE PUSH1 0x44 DUP4 ADD SWAP2 SWAP1 SWAP2 MSTORE PUSH2 0x1528 SWAP2 SWAP1 PUSH2 0x15DA DUP3 PUSH1 0x64 DUP2 ADD JUMPDEST SUB PUSH1 0x1F NOT DUP2 ADD DUP5 MSTORE DUP4 PUSH2 0x13AD JUMP JUMPDEST PUSH2 0x192C JUMP JUMPDEST PUSH1 0x40 MLOAD PUSH3 0x461BCD PUSH1 0xE5 SHL DUP2 MSTORE PUSH1 0x20 PUSH1 0x4 DUP3 ADD MSTORE PUSH1 0x36 PUSH1 0x24 DUP3 ADD MSTORE PUSH32 0x5361666545524332303A20617070726F76652066726F6D206E6F6E2D7A65726F PUSH1 0x44 DUP3 ADD MSTORE PUSH22 0x20746F206E6F6E2D7A65726F20616C6C6F77616E6365 PUSH1 0x50 SHL PUSH1 0x64 DUP3 ADD MSTORE PUSH1 0x84 SWAP1 REVERT JUMPDEST POP PUSH1 0x40 MLOAD PUSH4 0x6EB1769F PUSH1 0xE1 SHL DUP2 MSTORE ADDRESS PUSH1 0x4 DUP3 ADD MSTORE PUSH1 0x1 PUSH1 0x1 PUSH1 0xA0 SHL SUB DUP5 DUP2 AND PUSH1 0x24 DUP4 ADD MSTORE PUSH1 0x20 SWAP1 DUP3 SWAP1 PUSH1 0x44 SWAP1 DUP3 SWAP1 DUP7 AND GAS STATICCALL SWAP1 DUP2 ISZERO PUSH2 0x16BD JUMPI PUSH1 0x0 SWAP2 PUSH2 0x168B JUMPI JUMPDEST POP ISZERO PUSH2 0x1591 JUMP JUMPDEST SWAP1 POP PUSH1 0x20 DUP2 RETURNDATASIZE PUSH1 0x20 GT PUSH2 0x16B5 JUMPI JUMPDEST DUP2 PUSH2 0x16A6 PUSH1 0x20 SWAP4 DUP4 PUSH2 0x13AD JUMP JUMPDEST DUP2 ADD SUB SLT PUSH2 0x18A JUMPI MLOAD CODESIZE PUSH2 0x1684 JUMP JUMPDEST RETURNDATASIZE SWAP2 POP PUSH2 0x1699 JUMP JUMPDEST PUSH1 0x40 MLOAD RETURNDATASIZE PUSH1 0x0 DUP3 RETURNDATACOPY RETURNDATASIZE SWAP1 REVERT JUMPDEST PUSH1 0x40 MLOAD PUSH4 0x38ED1739 PUSH1 0xE0 SHL DUP2 MSTORE PUSH1 0x4 DUP2 ADD SWAP3 SWAP1 SWAP3 MSTORE PUSH1 0x24 DUP3 ADD SWAP3 SWAP1 SWAP3 MSTORE PUSH1 0xA0 PUSH1 0x44 DUP3 ADD MSTORE PUSH1 0x1 PUSH1 0x1 PUSH1 0xA0 SHL SUB SWAP7 SWAP6 SWAP1 SWAP5 DUP6 SWAP5 DUP6 SWAP5 DUP6 SWAP4 SWAP2 DUP11 SWAP2 PUSH2 0x1710 SWAP2 PUSH1 0xA4 DUP8 ADD SWAP2 PUSH2 0x1308 JUMP JUMPDEST SWAP3 AND PUSH1 0x64 DUP5 ADD MSTORE PUSH1 0x84 DUP4 ADD MSTORE PUSH1 0x0 SWAP8 DUP9 SWAP6 DUP7 SWAP3 SUB SWAP4 AND GAS CALL SWAP1 DUP2 ISZERO PUSH2 0x1833 JUMPI DUP4 SWAP2 PUSH2 0x1782 JUMPI JUMPDEST POP DUP1 MLOAD PUSH1 0x0 NOT DUP2 ADD SWAP1 DUP2 GT PUSH2 0x176E JUMPI DUP2 MLOAD DUP2 LT ISZERO PUSH2 0x175A JUMPI PUSH1 0x5 SHL ADD PUSH1 0x20 ADD MLOAD SWAP2 POP JUMP JUMPDEST PUSH4 0x4E487B71 PUSH1 0xE0 SHL DUP5 MSTORE PUSH1 0x32 PUSH1 0x4 MSTORE PUSH1 0x24 DUP5 REVERT JUMPDEST PUSH4 0x4E487B71 PUSH1 0xE0 SHL DUP5 MSTORE PUSH1 0x11 PUSH1 0x4 MSTORE PUSH1 0x24 DUP5 REVERT JUMPDEST SWAP1 POP RETURNDATASIZE DUP1 DUP5 DUP4 RETURNDATACOPY PUSH2 0x1793 DUP2 DUP4 PUSH2 0x13AD JUMP JUMPDEST DUP2 ADD PUSH1 0x20 SWAP1 DUP2 DUP4 DUP3 SUB SLT PUSH2 0x182F JUMPI DUP3 MLOAD PUSH8 0xFFFFFFFFFFFFFFFF SWAP4 DUP5 DUP3 GT PUSH2 0x1813 JUMPI ADD DUP2 PUSH1 0x1F DUP3 ADD SLT ISZERO PUSH2 0x182B JUMPI DUP1 MLOAD SWAP4 DUP5 GT PUSH2 0x1817 JUMPI DUP4 PUSH1 0x5 SHL SWAP1 PUSH1 0x40 MLOAD SWAP5 PUSH2 0x17DE DUP6 DUP5 ADD DUP8 PUSH2 0x13AD JUMP JUMPDEST DUP6 MSTORE DUP4 DUP1 DUP7 ADD SWAP3 DUP3 ADD ADD SWAP3 DUP4 GT PUSH2 0x1813 JUMPI DUP4 ADD SWAP1 JUMPDEST DUP3 DUP3 LT PUSH2 0x1804 JUMPI POP POP POP POP CODESIZE PUSH2 0x1736 JUMP JUMPDEST DUP2 MLOAD DUP2 MSTORE SWAP1 DUP4 ADD SWAP1 DUP4 ADD PUSH2 0x17F3 JUMP JUMPDEST DUP7 DUP1 REVERT JUMPDEST PUSH4 0x4E487B71 PUSH1 0xE0 SHL DUP7 MSTORE PUSH1 0x41 PUSH1 0x4 MSTORE PUSH1 0x24 DUP7 REVERT JUMPDEST DUP6 DUP1 REVERT JUMPDEST DUP5 DUP1 REVERT JUMPDEST PUSH1 0x40 MLOAD RETURNDATASIZE DUP6 DUP3 RETURNDATACOPY RETURNDATASIZE SWAP1 REVERT JUMPDEST PUSH1 0x40 MLOAD PUSH4 0xA9059CBB PUSH1 0xE0 SHL PUSH1 0x20 DUP3 ADD MSTORE PUSH1 0x1 PUSH1 0x1 PUSH1 0xA0 SHL SUB SWAP1 SWAP3 AND PUSH1 0x24 DUP4 ADD MSTORE PUSH1 0x44 DUP3 ADD SWAP3 SWAP1 SWAP3 MSTORE PUSH2 0x1528 SWAP2 PUSH2 0x15DA DUP3 PUSH1 0x64 DUP2 ADD PUSH2 0x15CC JUMP JUMPDEST SWAP2 SWAP1 DUP3 ADD DUP1 SWAP3 GT PUSH2 0x12F2 JUMPI JUMP JUMPDEST PUSH1 0x20 PUSH32 0x6C5EFEFF5C320943D265DC4E5F1AF95AD523555CE0C1957E367DDA5514572DF SWAP2 PUSH1 0x1 DUP1 PUSH1 0xA0 SHL SUB AND SWAP3 DUP4 PUSH1 0x0 MSTORE PUSH1 0x4 DUP3 MSTORE PUSH1 0x40 PUSH1 0x0 KECCAK256 PUSH2 0x18C9 DUP3 DUP3 SLOAD PUSH2 0x1877 JUMP JUMPDEST SWAP1 SSTORE PUSH1 0x40 MLOAD SWAP1 DUP2 MSTORE LOG2 JUMP JUMPDEST PUSH1 0x1 SLOAD PUSH1 0x1 PUSH1 0x1 PUSH1 0xA0 SHL SUB AND CALLER SUB PUSH2 0x18E8 JUMPI JUMP JUMPDEST PUSH1 0x64 PUSH1 0x40 MLOAD PUSH3 0x461BCD PUSH1 0xE5 SHL DUP2 MSTORE PUSH1 0x20 PUSH1 0x4 DUP3 ADD MSTORE PUSH1 0x20 PUSH1 0x24 DUP3 ADD MSTORE PUSH32 0x4F776E61626C653A2063616C6C6572206973206E6F7420746865206F776E6572 PUSH1 0x44 DUP3 ADD MSTORE REVERT JUMPDEST PUSH1 0x1 DUP1 PUSH1 0xA0 SHL SUB AND SWAP1 PUSH1 0x40 MLOAD PUSH1 0x40 DUP2 ADD PUSH8 0xFFFFFFFFFFFFFFFF SWAP1 DUP3 DUP2 LT DUP3 DUP3 GT OR PUSH2 0x13CF JUMPI PUSH1 0x40 MSTORE PUSH1 0x20 SWAP4 DUP5 DUP4 MSTORE PUSH32 0x5361666545524332303A206C6F772D6C6576656C2063616C6C206661696C6564 DUP6 DUP5 ADD MSTORE PUSH1 0x0 DUP1 DUP6 DUP8 DUP3 SWAP8 MLOAD SWAP2 ADD DUP3 DUP6 GAS CALL SWAP1 RETURNDATASIZE ISZERO PUSH2 0x1A78 JUMPI RETURNDATASIZE SWAP3 DUP4 GT PUSH2 0x1A64 JUMPI SWAP1 PUSH2 0x19C7 SWAP4 SWAP3 SWAP2 PUSH1 0x40 MLOAD SWAP3 PUSH2 0x19BA DUP9 PUSH1 0x1F NOT PUSH1 0x1F DUP5 ADD AND ADD DUP6 PUSH2 0x13AD JUMP JUMPDEST DUP4 MSTORE RETURNDATASIZE DUP7 DUP9 DUP6 ADD RETURNDATACOPY PUSH2 0x1A83 JUMP JUMPDEST DUP1 MLOAD SWAP2 DUP3 ISZERO SWAP2 DUP5 DUP4 ISZERO PUSH2 0x1A39 JUMPI JUMPDEST POP POP POP SWAP1 POP ISZERO PUSH2 0x19E2 JUMPI POP JUMP JUMPDEST PUSH1 0x84 SWAP1 PUSH1 0x40 MLOAD SWAP1 PUSH3 0x461BCD PUSH1 0xE5 SHL DUP3 MSTORE PUSH1 0x4 DUP3 ADD MSTORE PUSH1 0x2A PUSH1 0x24 DUP3 ADD MSTORE PUSH32 0x5361666545524332303A204552433230206F7065726174696F6E20646964206E PUSH1 0x44 DUP3 ADD MSTORE PUSH10 0x1BDD081CDD58D8D95959 PUSH1 0xB2 SHL PUSH1 0x64 DUP3 ADD MSTORE REVERT JUMPDEST SWAP2 SWAP4 DUP2 DUP1 SWAP5 POP ADD SUB SLT PUSH2 0x1A60 JUMPI DUP3 ADD MLOAD SWAP1 DUP2 ISZERO ISZERO DUP3 SUB PUSH2 0x1A5D JUMPI POP DUP1 CODESIZE DUP1 DUP5 PUSH2 0x19D5 JUMP JUMPDEST DUP1 REVERT JUMPDEST POP DUP1 REVERT JUMPDEST PUSH4 0x4E487B71 PUSH1 0xE0 SHL DUP6 MSTORE PUSH1 0x41 PUSH1 0x4 MSTORE PUSH1 0x24 DUP6 REVERT JUMPDEST SWAP1 PUSH2 0x19C7 SWAP4 SWAP3 POP PUSH1 0x60 SWAP2 JUMPDEST SWAP2 SWAP3 SWAP1 ISZERO PUSH2 0x1AE5 JUMPI POP DUP2 MLOAD ISZERO PUSH2 0x1A97 JUMPI POP SWAP1 JUMP JUMPDEST EXTCODESIZE ISZERO PUSH2 0x1AA0 JUMPI SWAP1 JUMP JUMPDEST PUSH1 0x40 MLOAD PUSH3 0x461BCD PUSH1 0xE5 SHL DUP2 MSTORE PUSH1 0x20 PUSH1 0x4 DUP3 ADD MSTORE PUSH1 0x1D PUSH1 0x24 DUP3 ADD MSTORE PUSH32 0x416464726573733A2063616C6C20746F206E6F6E2D636F6E7472616374000000 PUSH1 0x44 DUP3 ADD MSTORE PUSH1 0x64 SWAP1 REVERT JUMPDEST DUP3 MLOAD SWAP1 SWAP2 POP ISZERO PUSH2 0x1AF8 JUMPI POP DUP1 MLOAD SWAP1 PUSH1 0x20 ADD REVERT JUMPDEST PUSH1 0x40 MLOAD SWAP1 PUSH3 0x461BCD PUSH1 0xE5 SHL DUP3 MSTORE DUP2 PUSH1 0x20 DUP1 PUSH1 0x4 DUP4 ADD MSTORE DUP3 MLOAD SWAP1 DUP2 PUSH1 0x24 DUP5 ADD MSTORE PUSH1 0x0 SWAP4 JUMPDEST DUP3 DUP6 LT PUSH2 0x1B3E JUMPI POP POP PUSH1 0x44 SWAP3 POP PUSH1 0x0 DUP4 DUP3 DUP5 ADD ADD MSTORE PUSH1 0x1F DUP1 NOT SWAP2 ADD AND DUP2 ADD SUB ADD SWAP1 REVERT JUMPDEST DUP5 DUP2 ADD DUP3 ADD MLOAD DUP7 DUP7 ADD PUSH1 0x44 ADD MSTORE SWAP4 DUP2 ADD SWAP4 DUP6 SWAP4 POP PUSH2 0x1B1B JUMP INVALID LOG2 PUSH5 0x6970667358 0x22 SLT KECCAK256 0x2F DELEGATECALL 0xF9 0x2D SWAP10 PUSH16 0x7BD3B0721F46ED0FFCC6C7C95C058433 0xBB PUSH30 0xEBBAE6C77D70A62764736F6C634300081800330000000000000000000000 "},"methodIdentifiers":{"BASIS_POINTS()":"e1f1c4a7","MAX_HOPS()":"8c51222e","NATIVE_TOKEN()":"31f7d964","accumulatedFees(address)":"fcf66664","getAccumulatedFees(address)":"564201f9","getRouters()":"f88c31ce","owner()":"8da5cb5b","pause()":"8456cb59","paused()":"5c975abb","platformFee()":"26232a2e","recoverToken(address,uint256)":"b29a8140","registerRouter(address)":"22b19af7","registeredRouters(address)":"877056cf","renounceOwnership()":"715018a6","routers(uint256)":"4e9c1118","setPlatformFee(uint256)":"12e8e2c3","swapExactTokensForTokens(uint256,uint256,address[],address,uint256,address)":"05a1450d","swapWithSplit((address[],uint256,uint256,address)[],address,uint256,address,uint256)":"e7c68c42","transferOwnership(address)":"f2fde38b","unpause()":"3f4ba83a","unregisterRouter(address)":"5012e0a4","wethToken()":"4b57b0be","withdrawFees(address,address)":"f2555278"}}}}}